S018000030315F546F674C65645F55374C3141322E7372656332
S11300000C942A000C9434000C9434000C943400A6
S11300100C9434000C9434000C9434000C9434008C
S11300200C9434000C9434000C9434000C9434007C
S11300300C9434000C9434000C9434000C9434006C
S11300400C9434000C9434000C9434000C9434005C
S11300500C94340011241FBECFE5D8E0DEBFCDBF21
S11300600E944C000C9424010C94000081B380681D
S113007081BB81B3806481BB81B3806281BB81B366
S1130080806181BB81B38B7F81BB81B38D7F81BB59
S113009081B38E7F81BB08950E943600809B11C07E
S11300A082B3806182BB2FEF84E39CE021508040C7
S11300B09040E1F700C0000082B38F7E82BB80993C
S11300C0FECF819B5FC082B3806282BB2FEF84E34B
S11300D09CE0215080409040E1F700C0000082B3D2
S11300E0806482BB2FEF84E39CE0215080409040E9
S11300F0E1F700C0000082B3806882BB2FEF84E385
S11301009CE0215080409040E1F700C0000082B3A1
S1130110806182BB2FE78AE196E0215080409040C5
S1130120E1F700C0000082B38F7E82BB82B38F7779
S113013082BB2FEF84E39CE0215080409040E1F7A4
S113014000C0000082B38F7B82BB2FEF84E39CE06E
S1130150215080409040E1F700C0000082B38F7DC1
S113016082BB82B3806182BB2FE78AE196E0215093
S113017080409040E1F700C0000082B38F7E82BBD4
S11301808199FECF829B8ACF82B3806882BB2FEF96
S113019084E39CE0215080409040E1F700C00000DF
S11301A082B3806482BB2FEF84E39CE021508040C3
S11301B09040E1F700C0000082B3806282BB2FEF61
S11301C084E39CE0215080409040E1F700C00000AF
S11301D082B3806182BB2FE78AE196E021508040A0
S11301E09040E1F700C0000082B38F7E82BB82B3EF
S11301F08F7D82BB2FEF84E39CE0215080409040B0
S1130200E1F700C0000082B38F7B82BB2FEF84E351
S11302109CE0215080409040E1F700C0000082B390
S11302208F7782BB82B3806182BB2FE78AE196E03D
S1130230215080409040E1F700C0000082B38F7EDF
S10F024082BB8299FECF2ACFF894FFCF36
S9030000FC
