S01C000030305F456E61626C65457874695F55364C3441332E737265638A
S11300000C942A000C946D000C9489000C94A500A7
S11300100C9434000C9434000C9434000C9434008C
S11300200C9434000C9434000C9434000C9434007C
S11300300C9434000C9434000C9434000C9434006C
S11300400C9434000C9434000C9434000C9434005C
S11300500C94340011241FBECFE5D8E0DEBFCDBF21
S11300600E9436000C94C1000C94000081B3806897
S113007081BB81B3806481BB81B3806281BB87B360
S11300808B7F87BB81B38D7F81BB81B38E7F81BB27
S113009085B7886085BF85B7846085BF85B78D7F48
S11300A085BF85B7816085BF84B78F7B84BF8BB7DD
S11300B080688BBF8BB780648BBF8BB780628BBF2C
S11300C08FB780688FBF82B38F7782BB82B38F7BF9
S11300D082BB82B38F7D82BBF6CF1F920F920FB685
S11300E00F9211242F938F939F9382B3806282BBCC
S11300F02FEF89E698E1215080409040E1F700C05D
S113010000009F918F912F910F900FBE0F901F9021
S113011018951F920F920FB60F9211242F938F935D
S11301209F9382B3806482BB2FEF89E698E12150CC
S113013080409040E1F700C000009F918F912F9183
S11301400F900FBE0F901F9018951F920F920FB62D
S11301500F9211242F938F939F9382B3806882BB55
S11301602FEF89E698E1215080409040E1F700C0EC
S113017000009F918F912F910F900FBE0F901F90B1
S10901801895F894FFCF6E
S9030000FC
