:020000040800F2
:1000000000280020A9050008F9050008F9050008E6
:10001000F9050008F9050008F905000800000000CE
:10002000000000000000000000000000F9050008CA
:10003000F905000800000000F9050008F9050008AE
:10004000F9050008F9050008F9050008F905000898
:10005000F9050008F9050008F9050008F905000888
:10006000F9050008F9050008F9050008F905000878
:10007000F9050008F9050008F9050008F905000868
:10008000F9050008F9050008F9050008F905000858
:10009000F9050008F9050008F9050008F905000848
:1000A000F9050008F9050008F9050008F905000838
:1000B000F9050008F9050008F9050008F905000828
:1000C000F9050008F9050008F9050008F905000818
:1000D000F9050008F9050008F9050008F905000808
:1000E000F9050008F905000800000000F9050008FE
:1000F000F9050008F9050008F9050008F9050008E8
:10010000F9050008F9050008F9050008F9050008D7
:10011000F9050008F9050008F9050008F9050008C7
:10012000F9050008F9050008F9050008F9050008B7
:1001300010B5054C237833B9044B13B10448AFF321
:1001400000800123237010BD00000020000000008B
:100150004406000808B5034B1BB103490348AFF33D
:10016000008008BD000000000400002044060008D4
:1001700080B485B000AF03463960FB710023FB7388
:100180003B68002B5DD0FB790F2B5CD8FB790F2BE4
:1001900052D801A252F823F0D9010008E501000865
:1001A000F1010008FD01000809020008150200081D
:1001B000210200082D020008D9010008E50100080D
:1001C000F1010008FD0100080902000815020008FD
:1001D000210200082D0200083B6800221A7001234A
:1001E000FB732BE03B6804221A700123FB7325E0AC
:1001F0003B6808221A700123FB731FE03B680C2246
:100200001A700123FB7319E03B6810221A70012356
:10021000FB7313E03B6814221A700123FB730DE09B
:100220003B6818221A700123FB7307E03B681C220D
:100230001A700123FB7301E00423FB730423FB7397
:1002400001E00223FB73FB7B18461437BD4680BCDC
:10025000704700BF80B586B000AF78600023FB75A3
:100260007B68002B00F0A28000233B610023FB731E
:100270007B681B7907F10E0211461846FFF778FFDD
:100280000346FB757B681B79072B02D87B681B68CC
:1002900002E07B681B6804333B613B691B68BA7BE7
:1002A00011460F228A40D2431A403B691A607B688C
:1002B0005B79052B77D801A252F823F007030008D9
:1002C00007030008690300082B030008D502000893
:1002D000D50200087B685B79043B9B005AB27B68BF
:1002E0009B795BB213435BB2DBB203F00F03FB738A
:1002F0003B691B68FA7BB97B8A401A433B691A60E9
:100300000123FB7554E07B685B799B00DBB203F053
:100310000F03FB733B691B68FA7BB97B8A401A4366
:100320003B691A600123FB7542E07B685B799B00A7
:10033000DBB203F00F03FB737B681B685A697B68B1
:100340001B79194601238B4019467B681B680A43B9
:100350005A613B691B68FA7BB97B8A401A433B6947
:100360001A600123FB7523E07B685B799B00DBB29D
:1003700003F00F03FB737B681B681A697B681B79AA
:10038000194601238B4019467B681B680A431A6192
:100390003B691B68FA7BB97B8A401A433B691A6048
:1003A0000123FB7504E00423FB7501E00223FB75C8
:1003B000FB7D18461837BD4680BD00BF80B487B0AE
:1003C00000AFF8600B467A60FB720023FB75FB6898
:1003D000002B16D07B68002B13D0FB7A0F2B0DD887
:1003E000FB689A68FB7A22FA03F3DBB203F001039D
:1003F000DAB27B681A700123FB7504E00423FB75F5
:1004000001E00223FB75FB7D18461C37BD4680BC0E
:10041000704780B485B000AF78600B46FB70002356
:10042000FB737B68002B11D0FB780F2B0BD87B68FC
:10043000DB68FA78012101FA02F25A407B68DA603F
:100440000123FB7304E00423FB7301E00223FB732D
:10045000FB7B18461437BD4680BC704780B582B020
:1004600000AF00F02FF800F041F8FB1D1A46012103
:100470001248FFF7A3FFFB79002B0DD10121104893
:10048000FFF7C7FF05E0FB1D1A4601210B48FFF7E8
:1004900095FFFB79002BF6D0FB1D1A460D2107486E
:1004A000FFF78CFFFB79012B03D10D210448FFF7E7
:1004B000B0FF012000F05AF8D7E700BF0008014064
:1004C000000C014080B400AF074B9B69064A43F023
:1004D00004039361044B9B69034A43F0080393614F
:1004E00000BFBD4680BC70470010024080B500AF21
:1004F0001B4B1C4A1A601A4B01221A71184B01221D
:100500005A711748FFF7A6FE154B174A1A60144B8D
:1005100001221A71124B04225A71114B01229A7155
:100520000F48FFF797FE0E4B0E4A1A600C4B0D2238
:100530001A710B4B01225A710948FFF78BFE084BC9
:10054000094A1A60064B0D221A71054B04225A7192
:10055000034B01229A710248FFF77CFE00BF80BD69
:100560001C00002000080140000C014080B485B050
:1005700000AF78600023FB600BE00023BB6002E06B
:10058000BB680133BB60BB68FE2BF9D9FB68013344
:10059000FB60FA687B689A42EFD300BF00BF143754
:1005A000BD4680BC704700000D488546AFF3008013
:1005B0000C480D490D4A002302E0D458C4500433BE
:1005C000C4188C42F9D30A4A0A4C002301E0136094
:1005D0000432A242FBD300F011F8FFF73FFFFEE721
:1005E0000028002000000020000000206406000811
:1005F0000000002024000020FEE7000070B5002667
:100600000C4D0D4C641BA410A64209D100F01AF841
:1006100000260A4D0A4C641BA410A64205D170BDE9
:1006200055F8043B98470136EEE755F8043B9847E8
:100630000136F2E75C0600085C0600085C0600086C
:1006400060060008F8B500BFF8BC08BC9E467047BD
:0C065000F8B500BFF8BC08BC9E4670471F
:04065C00550100083C
:04066000310100085C
:04000005080005A941
:00000001FF
