:020000040800F2
:1000000000280020250A0008750A0008750A000863
:10001000750A0008750A0008750A0008000000004B
:10002000000000000000000000000000750A000849
:10003000750A000800000000750A0008750A00082B
:10004000750A0008750A0008750A0008750A000894
:10005000750A0008750A0008750A0008750A000884
:10006000750A0008750A0008750A0008750A000874
:10007000750A0008750A0008750A0008750A000864
:10008000750A0008750A0008750A0008750A000854
:10009000750A0008750A0008750A0008750A000844
:1000A000750A0008750A0008750A0008750A000834
:1000B000750A0008750A0008750A0008750A000824
:1000C000750A0008750A0008750A0008750A000814
:1000D000750A0008750A0008750A0008750A000804
:1000E000750A0008750A000800000000750A00087B
:1000F000750A0008750A0008750A0008750A0008E4
:10010000750A0008750A0008750A0008750A0008D3
:10011000750A0008750A0008750A0008750A0008C3
:10012000750A0008750A0008750A0008750A0008B3
:1001300010B5054C237833B9044B13B10448AFF321
:1001400000800123237010BD00000020000000008B
:10015000C00A000808B5034B1BB103490348AFF3BD
:10016000008008BD0000000004000020C00A000854
:1001700080B483B000AF0346FB71FB790F2B35D8F9
:1001800001A252F823F000BFC9010008ED010008E8
:10019000ED010008ED010008CD010008D1010008C3
:1001A000D5010008D9010008CD010008D1010008DF
:1001B000D5010008D9010008DD010008E1010008AF
:1001C000E5010008E9010008002310E00A4B0EE0F9
:1001D0000A4B0CE00A4B0AE00A4B08E00A4B06E027
:1001E0000A4B04E00A4B02E00A4B00E000231846E9
:1001F0000C37BD4680BC704780841E0000093D005E
:1002000000127A000024F4000090D0030020A1071F
:100210000040420F0080841E90B484B000AF0446BA
:10022000084611461A462346FB710346BB710B462E
:100230007B7113463B710023FB73FB79022B00F2A9
:100240000A817B79072B00F206813B79072B00F2AC
:1002500002813B7E0F2B00F2FE80BB790E2B00F259
:10026000FA80FB79002B07D0002BC0F2D080013B35
:10027000012B00F2CC805AE07B4B1B687A4A23F0BA
:1002800080731360784B1B68774A23F480331360C4
:10029000754B1B68744A43F00103136000BF724B37
:1002A0001B6803F00203002BF9D06F4B5B686E4AAA
:1002B00023F00803536000BF6B4B5B689B0803F09F
:1002C0000303002BF8D1684B5B6823F47013BA79F1
:1002D00092041146644A0B435360634B5B68624A65
:1002E00023F480335360604B1B685F4A43F0807394
:1002F000136000BF5C4B1B6803F00073002BF9D048
:10030000594B5B68584A23F008035360564B5B68AF
:10031000554A43F00203536000BF534B5B689B0890
:1003200003F00303022BF8D10123FB7371E04E4B62
:100330001B684D4A23F0807313604B4B1B684A4A7D
:1003400023F001031360484B1B68474A43F4803392
:10035000136000BF444B1B6803F40033002BF9D03B
:10036000414B5B68404A23F0080353603E4B5B6897
:100370003D4A43F00103536000BF3B4B5B689B0861
:1003800003F00303012BF8D1374B5B6823F47013A0
:10039000BA7992041146344A0B435360324B5B687E
:1003A000314A43F4803353602F4B5B682E4A23F469
:1003B00000335360FB79022B05D12B4B5B682A4A33
:1003C00043F400335360284B1B68274A43F0807383
:1003D000136000BF244B1B6803F00073002BF9D09F
:1003E000214B5B68204A23F0080353601E4B5B6877
:1003F0001D4A43F00203536000BF1B4B5B689B0820
:1004000003F00303022BF8D10123FB7301E0042363
:10041000FB73FB7B012B20D1134B5B6823F46053F0
:100420003A79D2021146104A0B4353600E4B5B6877
:1004300023F4E0637A79120211460B4A0B435360AE
:10044000094B5B6823F0F0033A7E12011146064A1D
:100450000B43536001E00423FB73FB7B184610370A
:10046000BD4690BC704700BF0010024080B485B00C
:1004700000AF0346FB710023FB73FB792F2B00F2C7
:10048000BC81FB792F2B00F2B58101A252F823F039
:10049000510500085F0500086D0500087B05000890
:1004A0008905000897050008A5050008B3050008A0
:1004B000C1050008CF050008DD050008EB050008B0
:1004C000F9050008070600081506000823060008BD
:1004D000310600083F0600084D0600085B060008CC
:1004E00069060008770600088506000893060008DC
:1004F000A1060008AF060008BD060008CB060008EC
:10050000D9060008E7060008F506000803070008FA
:10051000110700081F0700082D0700083B07000807
:100520004907000857070008650700087307000817
:10053000810700088F070008A1070008AF0700081F
:10054000BD070008CB070008D9070008E707000827
:10055000924B5B69914A43F0010353614FE18F4B2A
:100560005B698E4A43F00203536148E18B4B5B6940
:100570008A4A43F00403536141E1884B5B69874A2F
:1005800043F0100353613AE1844B5B69834A43F0C3
:100590004003536133E1814B5B69804A43F48073CC
:1005A00053612CE17D4B5B697C4A43F4806353616A
:1005B00025E17A4B9B69794A43F0010393611EE17F
:1005C000764B9B69754A43F00403936117E1734BC3
:1005D0009B69724A43F00803936110E16F4B9B697A
:1005E0006E4A43F01003936109E16C4B9B696B4ABF
:1005F00043F02003936102E1684B9B69674A43F033
:1006000040039361FBE0654B9B69644A43F08003C0
:100610009361F4E0614B9B69604A43F4807393619A
:10062000EDE05E4B9B695D4A43F400739361E6E045
:100630005A4B9B69594A43F480639361DFE0574BFF
:100640009B69564A43F400639361D8E0534B9B691E
:10065000524A43F480539361D1E0504B9B694F4A17
:1006600043F400539361CAE04C4B9B694B4A43F4FB
:1006700080439361C3E0494B9B69484A43F400437C
:100680009361BCE0454B9B69444A43F4002393616A
:10069000B5E0424B9B69414A43F480139361AEE05D
:1006A0003E4B9B693D4A43F400139361A7E03B4BEB
:1006B000DB693A4A43F00103D361A0E0374BDB69C1
:1006C000364A43F00203D36199E0344BDB69334A85
:1006D00043F00403D36192E0304BDB692F4A43F0CF
:1006E0000803D3618BE02D4BDB692C4A43F01003E8
:1006F000D36184E0294BDB69284A43F02003D361AE
:100700007DE0264BDB69254A43F04003D36176E068
:10071000224BDB69214A43F08003D3616FE01F4B1A
:10072000DB691E4A43F48073D36168E01B4BDB69CD
:100730001A4A43F40063D36161E0184BDB69174A3E
:1007400043F48043D3615AE0144BDB69134A43F40A
:100750000043D36153E0114BDB69104A43F400338B
:10076000D3614CE00D4BDB690C4A43F48023D36129
:1007700045E00A4BDB69094A43F40023D3613EE0BC
:10078000064BDB69054A43F48013D36137E0034B22
:10079000DB69024A43F40013D36130E000100240E9
:1007A0001A4BDB69194A43F48003D36127E0174BE6
:1007B000DB69164A43F40003D36120E0134BDB6985
:1007C000124A43F00073D36119E0104BDB690F4A02
:1007D00043F00063D36112E00C4BDB690B4A43F03A
:1007E0008053D3610BE0094BDB69084A43F00053A7
:1007F000D36104E00423FB7301E00423FB73FB7B60
:1008000018461437BD4680BC704700BF0010024038
:1008100080B485B000AF78600023FB737B68002B49
:100820004CD02A4B5B689B0803F00303022B12D0C9
:10083000022B40D8002B02D0012B06D03BE07B6876
:10084000234A1A600123FB733AE07B68214A1A604D
:100850000123FB7334E01D4B5B6803F48033002BF2
:100860000FD11A4B5B689B0CDBB203F00F037B7359
:100870007B7B184A03FB02F27B681A600123FB733F
:100880001EE0124B5B681B0C03F00103012B0FD120
:100890000E4B5B689B0CDBB203F00F03BB73BB7B9F
:1008A0000C4A03FB02F27B681A600123FB7307E02A
:1008B0000423FB7304E00423FB7301E00223FB73B6
:1008C000FB7B18461437BD4680BC704700100240C1
:1008D00000127A0000093D0090B585B000AF786045
:1008E0000023FB737B68002B18D007F10803184620
:1008F000FFF78EFF0346FB730C4B5B681B09DBB2F3
:1009000003F00F03BB73BC68BB7B1846FFF730FCDA
:100910000346B4FBF3F27B681A6001E00223FB7329
:10092000FB7B18461437BD4690BD00BF0010024047
:1009300090B585B000AF78600023FB737B68002B17
:1009400018D007F108031846FFF7C6FF0346FB73EC
:100950000C4B5B681B0ADBB203F00703BB73BC687C
:10096000BB7B1846FFF704FC0346B4FBF3F27B683D
:100970001A6001E00223FB73FB7B18461437BD4667
:1009800090BD00BF0010024090B585B000AF786008
:100990000023FB737B68002B18D007F1080318466F
:1009A000FFF79AFF0346FB730C4B5B68DB0ADBB275
:1009B00003F00703BB73BC68BB7B1846FFF7D8FB8B
:1009C0000346B4FBF3F27B681A6001E00223FB7379
:1009D000FB7B18461437BD4690BD00BF0010024097
:1009E00080B584B002AF08230093052305220D21B2
:1009F0000020FFF711FC0820FFF738FD0920FFF762
:100A000035FD3B1D1846FFF703FF3B1D1846FFF75A
:100A100063FF3B1D1846FFF78BFF3B1D1846FFF792
:100A2000B3FFFEE70D488546AFF300800C480D4943
:100A30000D4A002302E0D458C4500433C4188C4239
:100A4000F9D30A4A0A4C002301E013600432A2429F
:100A5000FBD300F011F8FFF7C3FFFEE700280020EA
:100A60000000002000000020E00A00080000002034
:100A70001C000020FEE7000070B500260C4D0D4C58
:100A8000641BA410A64209D100F01AF800260A4DF2
:100A90000A4C641BA410A64205D170BD55F8043B56
:100AA00098470136EEE755F8043B98470136F2E7E0
:100AB000D80A0008D80A0008D80A0008DC0A00088A
:100AC000F8B500BFF8BC08BC9E467047F8B500BF3B
:080AD000F8BC08BC9E4670470B
:040AD80055010008BC
:040ADC0031010008DC
:0400000508000A25C0
:00000001FF
