:020000040800F2
:1000000000280020BD1F00080D2000080D2000085A
:100010000D2000080D2000080D2000080000000041
:100020000000000000000000000000000D2000089B
:100030000D200008000000000D2000080D20000821
:100040000D2000080D2000080D2000080D200008DC
:100050000D2000080D20000871010008950100081E
:10006000B9010008DD010008010200080D200008A8
:100070000D2000080D2000080D2000080D200008AC
:100080000D2000080D2000080D2000080D2000089C
:100090000D2000080D2000080D2000082502000892
:1000A0000D2000080D2000080D2000080D2000087C
:1000B0000D2000080D2000080D2000080D2000086C
:1000C0000D2000080D2000080D2000081D19000853
:1000D0007D1900081D1E00083D1E00085D1E000859
:1000E000CD0200080D200008000000000D200008CF
:1000F0000D2000080D2000080D2000080D2000082C
:100100000D2000080D2000080D2000080D2000081B
:100110000D2000080D2000080D2000080D2000080B
:100120000D2000080D2000080D2000080D200008FB
:1001300010B5054C237833B9044B13B10448AFF321
:1001400000800123237010BD00000020000000008B
:100150005820000808B5034B1BB103490348AFF30F
:10016000008008BD000000000400002058200008A6
:1001700080B500AF054B5B69044A43F0010353614E
:10018000034B1B68984700BF80BD00BF00040140BF
:100190001C00002080B500AF054B5B69044A43F0AA
:1001A00002035361034B5B68984700BF80BD00BFEB
:1001B000000401401C00002080B500AF054B5B69C6
:1001C000044A43F004035361034B9B68984700BF04
:1001D00080BD00BF000401401C00002080B500AFBE
:1001E000054B5B69044A43F008035361034BDB682A
:1001F000984700BF80BD00BF000401401C000020E4
:1002000080B500AF054B5B69044A43F010035361AE
:10021000034B1B69984700BF80BD00BF000401402D
:100220001C00002080B500AF264B5B6903F0200363
:10023000002B08D0234B5B69224A43F02003536113
:10024000214B5B6998471F4B5B6903F04003002B10
:1002500008D01C4B5B691B4A43F0400353611A4BA7
:100260009B699847174B5B6903F08003002B08D00C
:10027000144B5B69134A43F080035361124BDB69F3
:100280009847104B5B6903F48073002B08D00D4B2B
:100290005B690C4A43F4807353610B4B1B6A9847AC
:1002A000084B5B6903F40073002B08D0054B5B69B6
:1002B000044A43F400735361034B5B6A984700BFE1
:1002C00080BD00BF000401401C00002080B500AFCD
:1002D0002D4B5B6903F48063002B08D02A4B5B69CC
:1002E000294A43F480635361284B9B6A9847264B05
:1002F0005B6903F40063002B08D0234B5B69224A3F
:1003000043F400635361214BDB6A98471E4B5B69E2
:1003100003F48053002B08D01B4B5B691A4A43F44B
:1003200080535361194B1B6B9847174B5B6903F460
:100330000053002B08D0144B5B69134A43F400535D
:100340005361124B5B6B98470F4B5B6903F480431F
:10035000002B08D00C4B5B690B4A43F4804353617C
:100360000A4B9B6B9847084B5B6903F40043002BD7
:1003700008D0054B5B69044A43F400435361034BC7
:10038000DB6B984700BF80BD000401401C000020CB
:1003900080B485B000AF03463960FB710023FB7366
:1003A0003B68002B59D0FB790F2B53D801A252F890
:1003B00023F000BFF5030008010400080D04000845
:1003C0001904000825040008310400083D04000851
:1003D00049040008F5030008010400080D040008A2
:1003E0001904000825040008310400083D04000831
:1003F000490400083B6800221A700123FB732EE0B9
:100400003B6804221A700123FB7328E03B68082232
:100410001A700123FB7322E03B680C221A7001233F
:10042000FB731CE03B6810221A700123FB7316E07B
:100430003B6814221A700123FB7310E03B681822FA
:100440001A700123FB730AE03B681C221A70012317
:10045000FB7304E00423FB7301E00223FB73FB7BCB
:1004600018461437BD4680BC704700BF80B586B0C3
:1004700000AF78600023FB757B68002B00F0C7801D
:1004800000233B610023FB737B681B7907F10E029D
:1004900011461846FFF77CFF0346FB757B681B7906
:1004A000072B02D87B681B6802E07B681B6804335B
:1004B0003B613B691B68BA7B11460F228A40D243DD
:1004C0001A403B691A607B685B79082B00F29C80BC
:1004D00001A252F823F000BF4105000841050008C1
:1004E000AB05000877050008FD040008FD040008BE
:1004F000FD040008FD040008DD0500087B685B7949
:10050000043B9B005AB27B689B795BB213435BB29E
:10051000DBB203F00F03FB733B691B68FA7BB97B0B
:100520008A401A433B691A607B6818687B681979AE
:100530007B68DB791A4600F071F80346FB7568E0CA
:100540007B685B799B00DBB203F00F03FB733B69B5
:100550001B68FA7BB97B8A401A433B691A607B6847
:1005600018687B6819797B68DB791A4600F056F8C1
:100570000346FB754DE03B691B68BA7B11460822B8
:100580008A401A433B691A607B681B68DA687B689B
:100590001B79194601238B40DB4319467B681B6896
:1005A0000A40DA600123FB7533E03B691B68BA7BC4
:1005B000114608228A401A433B691A607B681B680F
:1005C000DA687B681B79194601238B4019467B68E2
:1005D0001B680A43DA600123FB751AE00423FB73EE
:1005E0003B691B68FA7BB97B8A401A433B691A60F6
:1005F0007B6818687B6819797B68DB791A4600F09C
:100600000DF80346FB7504E00423FB7501E00223AB
:10061000FB75FB7D18461837BD4680BD80B485B09C
:1006200000AF78600B46FB701346BB700023FB7372
:100630007B68002B2AD0BB78012B24D8FB780F2BAA
:1006400021D8BB78012B0BD17B68DB68FA780121BC
:1006500001FA02F21A437B68DA600123FB7317E0A8
:10066000BB78002B0CD17B68DB68FA78012101FA9A
:1006700002F2D2431A407B68DA600123FB7307E081
:100680000423FB7304E00423FB7301E00223FB73E8
:10069000FB7B18461437BD4680BC704780B485B0DC
:1006A00000AF0346FB710023FB73FB793B2B0FD894
:1006B000FB7903F01F030A49FA795209D2B21046B6
:1006C000012202FA03F341F820300123FB7301E019
:1006D0000423FB73FB7B18461437BD4680BC704770
:1006E00000E100E080B485B000AF0346FB71002359
:1006F000FB73FB793B2B10D8FB7903F01F030B49ED
:10070000FA795209D2B2104601229A4000F1200330
:1007100041F823200123FB7301E00423FB73FB7BDF
:1007200018461437BD4680BC704700BF00E100E0AA
:1007300080B485B000AF0346FB710023FB73FB79E7
:100740003B2B10D8FB7903F01F030B49FA795209B0
:10075000D2B2104601229A4000F1600341F82320F2
:100760000123FB7301E00423FB73FB7B1846143762
:10077000BD4680BC704700BF00E100E090B484B08B
:1007800000AF0446084611461A462346FB7103464D
:10079000BB710B467B7113463B710023FB73FB79E6
:1007A0003B2B44D8BB79042B3ED80023BB73BB79C9
:1007B000042B2ED801A252F823F000BFD70700085F
:1007C00001080008DD070008EF070008D10700084E
:1007D0003B79BB731DE07B79BB731AE07B799B008F
:1007E0005AB297F9043013435BB2BB7311E07B79C3
:1007F000DB005AB297F9043013435BB2BB7308E0D5
:100800007B795B005AB297F9043013435BB2BB7338
:1008100000BF0B49FB79BA7B1201D2B20B4483F8BB
:1008200000230123FB7304E00423FB7301E0042392
:10083000FB73FB7B18461037BD4690BC704700BF6A
:1008400000E100E080B485B000AF0346FB710023F7
:10085000FB73FB79042B0DD80A4B0B4ADA60FB794A
:100860001B02084A43F0BF6343F40033D360012303
:10087000FB7301E00423FB73FB7B18461437BD4672
:1008800080BC704700ED00E00000FA0590B484B031
:1008900000AF0446084611461A462346FB7103463C
:1008A000BB710B467B7113463B710023FB73FB79D5
:1008B000012B00F29080BB79072B00F28C807B79B2
:1008C000072B00F288803B790F2B00F28480FB79A4
:1008D000002B02D0012B2AD059E0434B1B68424A1F
:1008E00023F080731360404B1B683F4A23F480332E
:1008F00013603D4B1B683C4A43F00103136000BF8B
:10090000394B1B6803F00203002BF9D0364B5B68B0
:10091000354A23F00803536000BF334B5B689B08E4
:1009200003F00303002BF8D10123FB7331E02E4BBE
:100930001B682D4A23F0807313602B4B1B682A4AD7
:1009400023F001031360284B1B68274A43F48033CC
:10095000136000BF244B1B6803F40033002BF9D055
:10096000214B5B68204A23F0080353601E4B5B68F1
:100970001D4A43F00103536000BF1B4B5B689B089B
:1009800003F00303012BF8D10123FB7301E00423DF
:10099000FB73FB7B012B20D1134B5B6823F460536B
:1009A0007A79D2021146104A0B4353600E4B5B68B2
:1009B00023F4E063BA79120211460B4A0B435360E9
:1009C000094B5B6823F0F0033A7912011146064A9D
:1009D0000B43536001E00423FB73FB7B1846103785
:1009E000BD4690BC704700BF0010024080B485B087
:1009F00000AF0346FB710023FB73FB792F2B00F242
:100A00001C82FB792F2B00F2158201A252F823F0F1
:100A1000D10A0008E30A0008F50A0008070B0008DD
:100A2000190B00082B0B00083D0B00084F0B0008AA
:100A3000610B0008730B0008850B0008970B00087A
:100A4000A90B0008BB0B0008CD0B0008DF0B00084A
:100A5000F10B0008030C0008150C0008270C000817
:100A6000390C00084B0C00085D0C00086F0C0008E6
:100A7000810C0008930C0008A50C0008B70C0008B6
:100A8000C90C0008DB0C0008ED0C0008FF0C000886
:100A9000110D0008230D0008350D0008470D000852
:100AA0005D0D00086F0D0008810D0008930D000812
:100AB000A50D0008B70D0008C90D0008DB0D0008E2
:100AC000ED0D0008FF0D0008110E0008230E0008B0
:100AD000A14B5B69A04A43F0010353610123FB73FF
:100AE000ADE19D4B5B699C4A43F0020353610123D6
:100AF000FB73A4E1984B5B69974A43F0040353618D
:100B00000123FB739BE1944B5B69934A43F0100311
:100B100053610123FB7392E18F4B5B698E4A43F073
:100B2000400353610123FB7389E18B4B5B698A4A64
:100B300043F4807353610123FB7380E1864B5B694F
:100B4000854A43F4806353610123FB7377E1824B51
:100B50009B69814A43F0010393610123FB736EE1BA
:100B60007D4B9B697C4A43F0040393610123FB7333
:100B700065E1794B9B69784A43F00803936101234F
:100B8000FB735CE1744B9B69734A43F01003936100
:100B90000123FB7353E1704B9B696F4A43F02003C1
:100BA00093610123FB734AE16B4B9B696A4A43F0F3
:100BB000400393610123FB7341E1674B9B69664AE4
:100BC00043F0800393610123FB7338E1624B9B691F
:100BD000614A43F4807393610123FB732FE15E4B01
:100BE0009B695D4A43F4007393610123FB7326E123
:100BF000594B9B69584A43F4806393610123FB730B
:100C00001DE1554B9B69544A43F4006393610123F2
:100C1000FB7314E1504B9B694F4A43F4805393613B
:100C20000123FB730BE14C4B9B694B4A43F400538C
:100C300093610123FB7302E1474B9B69464A43F4EE
:100C4000804393610123FB73F9E0434B9B69424A64
:100C500043F4004393610123FB73F0E03E4B9B6937
:100C60003D4A43F4002393610123FB73E7E03A4BD1
:100C70009B69394A43F4801393610123FB73DEE0DF
:100C8000354B9B69344A43F4001393610123FB7392
:100C9000D5E0314BDB69304A43F00103D3610123D6
:100CA000FB73CCE02C4BDB692B4A43F00203D3618E
:100CB0000123FB73C3E0284BDB69274A43F004039D
:100CC000D3610123FB73BAE0234BDB69224A43F073
:100CD0000803D3610123FB73B1E01F4BDB691E4A9C
:100CE00043F01003D3610123FB73A8E01A4BDB69C7
:100CF000194A43F02003D3610123FB739FE0164B95
:100D0000DB69154A43F04003D3610123FB7396E08E
:100D1000114BDB69104A43F08003D3610123FB735D
:100D20008DE00D4BDB690C4A43F48073D3610123E2
:100D3000FB7384E0084BDB69074A43F40063D3612B
:100D40000123FB737BE0044BDB69034A43F48043DC
:100D5000D3610123FB7372E0001002403B4BDB695F
:100D60003A4A43F40043D3610123FB7367E0374BF6
:100D7000DB69364A43F40033D3610123FB735EE041
:100D8000324BDB69314A43F48023D3610123FB7387
:100D900055E02E4BDB692D4A43F40023D361012338
:100DA000FB734CE0294BDB69284A43F48013D36181
:100DB0000123FB7343E0254BDB69244A43F4001312
:100DC000D3610123FB733AE0204BDB691F4A43F4F4
:100DD0008003D3610123FB7331E01C4BDB691B4AA9
:100DE00043F40003D3610123FB7328E0174BDB6955
:100DF000164A43F00073D3610123FB731FE0134BCA
:100E0000DB69124A43F00063D3610123FB7316E0F0
:100E10000E4BDB690D4A43F08053D3610123FB7312
:100E20000DE00A4BDB69094A43F00053D36101230B
:100E3000FB7304E00423FB7301E00423FB73FB7BDF
:100E400018461437BD4680BC704700BF00100240F2
:100E500080B485B000AF0346FB710023FB73FB79C0
:100E6000062B40F2D681FB792F2B00F2D281FB7941
:100E7000073B282B00F2C98101A252F823F000BFE2
:100E8000250F0008370F0008490F00085B0F000806
:100E90006D0F00087F0F0008910F0008A30F0008D6
:100EA000B50F0008C70F0008D90F0008EB0F0008A6
:100EB000FD0F00080F100008211000083310000873
:100EC0004510000857100008691000087B10000842
:100ED0008D1000089F100008B1100008C310000812
:100EE000D5100008E7100008F91000080B110008E1
:100EF0001D1100082F1100084111000853110008AE
:100F00006511000877110008891100089B1100087D
:100F1000B1110008C3110008D5110008E71100083D
:100F2000F9110008A14BDB68A04A43F00103D3602C
:100F30000123FB736CE19D4BDB689C4A43F0040387
:100F4000D3600123FB7363E1984BDB68974A43F05E
:100F50000803D3600123FB735AE1944BDB68934A87
:100F600043F01003D3600123FB7351E18F4BDB6827
:100F70008E4A43F02003D3600123FB7348E18B4B7F
:100F8000DB688A4A43F04003D3600123FB733FE1EF
:100F9000864BDB68854A43F08003D3600123FB73F3
:100FA00036E1824BDB68814A43F48073D3600123CE
:100FB000FB732DE17D4BDB687C4A43F40073D36007
:100FC0000123FB7324E1794BDB68784A43F48063A7
:100FD000D3600123FB731BE1744BDB68734A43F45A
:100FE0000063D3600123FB7312E1704BDB686F4A2F
:100FF00043F48053D3600123FB7309E16B4BDB683F
:101000006A4A43F40053D3600123FB7300E1674B4A
:10101000DB68664A43F48043D3600123FB73F7E047
:10102000624BDB68614A43F40043D3600123FB73E6
:10103000EEE05E4BDB685D4A43F40023D36001239E
:10104000FB73E5E0594BDB68584A43F48013D360E7
:101050000123FB73DCE0554BDB68544A43F4001377
:10106000D3600123FB73D3E0504B1B694F4A43F01D
:10107000010313610123FB73CAE04C4B1B694B4A0C
:1010800043F0020313610123FB73C1E0474B1B696B
:10109000464A43F0040313610123FB73B8E0434B5A
:1010A0001B69424A43F0080313610123FB73AFE05D
:1010B0003E4B1B693D4A43F0100313610123FB7350
:1010C000A6E03A4B1B69394A43F020031361012320
:1010D000FB739DE0354B1B69344A43F040031361B9
:1010E0000123FB7394E0314B1B69304A43F08003CA
:1010F00013610123FB738BE02C4B1B692B4A43F4D8
:10110000807313610123FB7382E0284B1B69274A1C
:1011100043F4006313610123FB7379E0234B1B69E4
:10112000224A43F4804313610123FB7370E01F4B99
:101130001B691E4A43F4004313610123FB7367E0FC
:101140001A4B1B69194A43F4003313610123FB73E3
:101150005EE0164B1B69154A43F48023136101239B
:10116000FB7355E0114B1B69104A43F400231361D4
:101170000123FB734CE00D4B1B690C4A43F48013B5
:1011800013610123FB7343E0084B1B69074A43F4D7
:10119000001313610123FB733AE0044B1B69034AFC
:1011A00043F4800313610123FB7331E0001002401C
:1011B0001C4B1B691B4A43F4000313610123FB739F
:1011C00026E0184B1B69174A43F000731361012393
:1011D000FB731DE0134B1B69124A43F0006313615C
:1011E0000123FB7314E00F4B1B690E4A43F080533D
:1011F00013610123FB730BE00A4B1B69094A43F09F
:10120000005313610123FB7302E00423FB7300BF4F
:1012100001E00423FB73FB7B18461437BD4680BCFA
:10122000704700BF0010024080B485B000AF786006
:101230000023FB737B68002B4CD02A4B5B689B0818
:1012400003F00303022B12D0022B40D8002B02D054
:10125000012B06D03BE07B68234A1A600123FB7315
:101260003AE07B68214A1A600123FB7334E01D4B8E
:101270005B6803F48033002B0FD11A4B5B689B0C27
:10128000DBB203F00F037B737B7B184A03FB02F294
:101290007B681A600123FB731EE0124B5B681B0C1A
:1012A00003F00103012B0FD10E4B5B689B0CDBB2EB
:1012B00003F00F03BB73BB7B0C4A03FB02F27B689A
:1012C0001A600123FB7307E00423FB7304E004238B
:1012D000FB7301E00223FB73FB7B18461437BD460A
:1012E00080BC70470010024000127A0000093D00E7
:1012F00080B584B000AF78600023FB737B68002B5F
:1013000013D007F108031846FFF78EFF0346FB735F
:10131000BB68094A5268120A02F0070207498A5C50
:1013200023FA02F27B681A6001E00223FB73FB7B65
:1013300018461037BD4680BD0010024070200008DE
:1013400080B584B000AF78600023FB737B68002B0E
:1013500013D007F108031846FFF766FF0346FB7337
:10136000BB68094A5268D20A02F0070207498A5C40
:1013700023FA02F27B681A6001E00223FB73FB7B15
:1013800018461037BD4680BD00100240702000088E
:1013900080B584B000AF78600023FB737B68002BBE
:1013A00000F0A28000237B810023BB817B681B6847
:1013B000184600F0A7F80346FB73FB7B012B01D016
:1013C000FB7B94E07B681B684B4A934209D1122057
:1013D000FFF70CFB0346FB73FB7B012B12D0FB7B5F
:1013E00085E07B681B68454A934209D12320FFF7BB
:1013F000FDFA0346FB73FB7B012B03D0FB7B76E0FE
:101400000423FB737B689A887B8913437B817B6809
:10141000DA887B8913437B817B681A897B89134334
:101420007B817B685A897B8913437B817B689A899E
:101430007B8913437B817B68DA897B8913437B81BA
:101440007B681B8A042B05D17B681A8ABB891343EE
:10145000BB8104E07B681A8ABB891340BB817B682F
:101460005A8A7B8913437B817B689B8A002B2ED011
:101470007B689A8ABB891343BB817B681B681E4AC1
:1014800093420ED12320FFF709F90346FB73FB7B40
:10149000012B01D0FB7B2AE07B689B69184A136013
:1014A00015E07B681B68154A93420ED12420FFF794
:1014B000F5F80346FB73FB7B012B01D0FB7B16E0A9
:1014C0007B689B690E4A536001E00423FB737B89B0
:1014D00043F040037B817B681B687A891A607B68D4
:1014E0001B68BA895A6001E00223FB73FB7B184634
:1014F0001037BD4680BD00BF0030014000380040BD
:101500005800002080B584B000AF78600023FB73E2
:101510007B68002B32D07B681C4A934213D1122087
:10152000FFF796FC0346FB73FB7B012B01D0FB7B93
:1015300027E02320FFF7D6F80346FB73FB7B012B44
:101540001ED0FB7B1DE07B68114A934213D1232000
:10155000FFF77EFC0346FB73FB7B012B01D0FB7B7B
:101560000FE02420FFF7BEF80346FB73FB7B012B43
:1015700006D0FB7B05E00423FB7301E00223FB7331
:10158000FB7B18461037BD4680BD00BF00300140D0
:101590000038004080B586B000AF78600023FB754E
:1015A0007B68002B00F076817B681B68B54A93420C
:1015B00040F0B080B44BFB600123BB7404233B7448
:1015C0007B689B88042B5BD17B681B8A042B04D02F
:1015D0004FF6FB7293420ED01BE001237B7407F1A0
:1015E0000C031846FEF742FF0346FB75FB7D012BFB
:1015F00012D0FB7D51E106237B7407F10C031846E2
:10160000FEF734FF0346FB75FB7D012B06D0FB7D07
:1016100043E10423FB7502E000BF00E000BF0523A7
:101620003B7406237B7407F10C031846FEF71EFF7C
:101630000346FB75FB7D012B01D0FB7D2DE10623CD
:101640003B7401237B7407F10C031846FEF70EFF71
:101650000346FB75FB7D012B01D0FB7D1DE10723BC
:101660003B7406237B7407F10C031846FEF7FEFE5D
:101670000346FB75FB7D012B00F00E81FB7D0CE129
:101680007B689B88002B42D17B681B8A002B0DD185
:1016900001237B7407F10C031846FEF7E7FE0346AF
:1016A000FB75FB7D012B01D0FB7DF6E005233B7430
:1016B00001237B7407F10C031846FEF7D7FE03469F
:1016C000FB75FB7D012B01D0FB7DE6E006233B741F
:1016D00006237B7407F10C031846FEF7C7FE03468A
:1016E000FB75FB7D012B01D0FB7DD6E007233B740E
:1016F00001237B7407F10C031846FEF7B7FE03467F
:10170000FB75FB7D012B00F0C780FB7DC5E004234A
:10171000FB75C1E07B681B685C4A934240F0AE8079
:101720005B4BFB600123BB740C233B747B689B8881
:10173000042B5AD17B681B8A042B04D04FF6FB7212
:1017400093420ED01BE001237B7407F10C03184673
:10175000FEF78CFE0346FB75FB7D012B12D0FB7D53
:101760009BE006237B7407F10C031846FEF77EFE10
:101770000346FB75FB7D012B06D0FB7D8DE004232A
:10178000FB7502E000BF00E000BF0D233B740623A1
:101790007B7407F10C031846FEF768FE0346FB75E1
:1017A000FB7D012B01D0FB7D77E00E233B740123F1
:1017B0007B7407F10C031846FEF758FE0346FB75D1
:1017C000FB7D012B01D0FB7D67E00F233B740623DB
:1017D0007B7407F10C031846FEF748FE0346FB75C1
:1017E000FB7D012B58D0FB7D57E07B689B88002B4D
:1017F00041D17B681B8A002B0DD101237B7407F13B
:101800000C031846FEF732FE0346FB75FB7D012BE9
:1018100001D0FB7D41E00D233B7401237B7407F174
:101820000C031846FEF722FE0346FB75FB7D012BD9
:1018300001D0FB7D31E00E233B7406237B7407F15E
:101840000C031846FEF712FE0346FB75FB7D012BC9
:1018500001D0FB7D21E00F233B7401237B7407F152
:101860000C031846FEF702FE0346FB75FB7D012BB9
:1018700012D0FB7D11E00423FB750DE00423FB7502
:101880000AE000BF0030014000080140003800407D
:10189000000C01400223FB75FB7D18461837BD463E
:1018A00080BD00BF80B485B000AF78603960002390
:1018B000FB737B68002B28D03B68002B25D07B680E
:1018C0009B8A002B07D100BF7B681B689B6803F0D5
:1018D0000203002BF8D03B681A887B681B68DA602B
:1018E0007B689B8A002B07D100BF7B681B689B68C5
:1018F00003F00103002BF8D07B681B68DB689AB209
:101900003B681A800123FB7301E00223FB73FB7B1E
:1019100018461437BD4680BC7047000080B582B0C1
:1019200000AF144B1B68002B20D0134B9B685B0847
:1019300003F00103DAB23B7962F300033B710E4B13
:101940009B6803F00103DAB23B7962F341033B7118
:10195000094B9B681B0903F00103DAB23B7962F380
:1019600082033B71034B1B683879984700BF0837E7
:10197000BD4680BD580000200030014080B582B0D7
:1019800000AF144B5B68002B20D0134B9B685B08A7
:1019900003F00103DAB23B7962F300033B710E4BB3
:1019A0009B6803F00103DAB23B7962F341033B71B8
:1019B000094B9B681B0903F00103DAB23B7962F320
:1019C00082033B71034B5B683879984700BF083747
:1019D000BD4680BD580000200038004080B586B06C
:1019E00000AF78600023FB757B68002B00F0068158
:1019F0000023FB6000233B617B681B68834A9342A2
:101A000009D11420FEF7F2FF0346FB75FB7D012B85
:101A100023D0FB7DF5E07B681B687D4A934209D1AA
:101A20002520FEF7E3FF0346FB75FB7D012B14D059
:101A3000FB7DE6E07B681B68764A934209D126204D
:101A4000FEF7D4FF0346FB75FB7D012B05D0FB7D24
:101A5000D7E00423FB75FB7DD3E07B681B68DA6865
:101A60007B681B6842F40052DA607B681B68DA68A6
:101A70007B681B7919467B681B680A43DA607B68C0
:101A80001B68DA687B681B7B19467B681B680A4306
:101A9000DA607B681B68DA687B685B7B19467B6869
:101AA0001B680A43DA607B681B681A697B689B7B4A
:101AB00019467B681B680A431A617B681B685A6970
:101AC0007B68DB7B19467B681B680A435A617B682D
:101AD0001B684E4A93420BD107F10C031846FFF7DF
:101AE0002FFC0346FB75FB7D012B0DD0FB7D88E0B1
:101AF00007F10C031846FFF7FBFB0346FB75FB7D64
:101B0000012B01D0FB7D7CE0FA687B689B681B01A0
:101B1000B2FBF3F31901FA6813469B0013449A00D1
:101B20001A447B689B689B00B2FBF3F2F8687B6801
:101B30009B681B01B0FBF3F3642000FB03F3D31A93
:101B40001B01354AA2FB03235B0903F00F030B4380
:101B50003B617B681B683A699A607B681B7C002B41
:101B600049D07B681B68DA687B681B7C19467B68F8
:101B70001B680A43DA607B681B68244A93420ED1D3
:101B80002520FEF78BFD0346FB75FB7D012B01D065
:101B9000FB7D36E07B685B69204A136030E07B6840
:101BA0001B681B4A93420ED12620FEF777FD0346A1
:101BB000FB75FB7D012B01D0FB7D22E07B685B691F
:101BC000164A53601CE07B681B68124A93420ED190
:101BD0002720FEF763FD0346FB75FB7D012B01D03B
:101BE000FB7D0EE07B685B690C4A936008E0042390
:101BF000FB75FB7D05E00123FB7501E00223FB750E
:101C0000FB7D18461837BD4680BD00BF0038014037
:101C100000440040004800401F85EB516000002058
:101C200080B586B000AF78600023FB757B68002B21
:101C30007DD07B681B68414A934223D1404BFB60B7
:101C400006237B7409233B740123BB7407F10C0347
:101C50001846FEF70BFC0346FB75FB7D012B01D0FC
:101C6000FB7D67E008237B740A233B7407F10C03B8
:101C70001846FEF7FBFB0346FB75FB7D012B58D096
:101C8000FB7D57E07B681B682E4A934223D12C4B87
:101C9000FB6006237B7402233B740123BB7407F1B2
:101CA0000C031846FEF7E2FB0346FB75FB7D012B98
:101CB00001D0FB7D3EE008237B7403233B7407F1D6
:101CC0000C031846FEF7D2FB0346FB75FB7D012B88
:101CD0002FD0FB7D2EE07B681B681B4A934223D1EB
:101CE0001A4BFB6006237B740A233B740123BB74ED
:101CF00007F10C031846FEF7B9FB0346FB75FB7DA5
:101D0000012B01D0FB7D15E008237B740B233B7472
:101D100007F10C031846FEF7A9FB0346FB75FB7D94
:101D2000012B06D0FB7D05E00423FB7501E00223B7
:101D3000FB75FB7D18461837BD4680BD0038014055
:101D4000000801400044004000480040000C0140F1
:101D500080B485B000AF786039600023FB737B6886
:101D6000002B18D03B68002B15D07B681B7C002B08
:101D700007D100BF7B681B681B6803F08003002B42
:101D8000F8D03B681B881A467B681B68D2B25A6041
:101D90000123FB7301E00223FB73FB7B184614371E
:101DA000BD4680BC704780B485B000AF78603960B4
:101DB0000023FB737B68002B27D03B68002B24D0CB
:101DC0007B681B7C002B07D100BF7B681B681B68EE
:101DD00003F02003002BF8D07B685B7B002B08D13D
:101DE0007B681B685B689BB2DBB29AB23B681A8067
:101DF00008E07B681B685B689BB203F07F039AB2C4
:101E00003B681A800123FB7301E00223FB73FB7B19
:101E100018461437BD4680BC7047000080B500AF3F
:101E20002520FEF785FC044B1B68002B02D0024BDB
:101E30001B68984700BF80BD6000002080B500AFE0
:101E40002620FEF775FC044B5B68002B02D0024B8A
:101E50005B68984700BF80BD6000002080B500AF80
:101E60002720FEF765FC044B9B68002B02D0024B39
:101E70009B68984700BF80BD6000002080B500AF20
:101E80000B490C48FFF78FFF09490A48FFF760FF2D
:101E9000002204210848FEF7C1FB05490748FFF767
:101EA00001FD012204210448FEF7B8FB00BF80BDFC
:101EB000A00000206C0000200008014084000020E9
:101EC00080B582B000AF0023002200210020FEF781
:101ED000DDFC0820FEF78AFD0920FEF787FD0720BC
:101EE000FEF784FD0220FEF7ADFC01230122022152
:101EF0002520FEF743FC2B4B2B4A1A60294B4FF44D
:101F0000E1329A60274B0022DA73264B20221A74A2
:101F1000244B264A5A61234B00225A73214B00223C
:101F20001A73204B0C221A711E48FFF757FD1D48EB
:101F3000FFF776FE1E4B1F4A1A601D4B0122DA8105
:101F40001B4B02229A811A4B00225A81184B002205
:101F50001A81174B10225A82154B0022DA80144B3B
:101F600004229A80124B00229A61114B00229A821D
:101F70000F4B4FF440721A820F4B3B6004233B71AE
:101F800004237B710123BB710123FB713B4618467F
:101F9000FEF76CFA0648FFF7FBF90548FFF7FAFA77
:101FA000FEE700BF6C000020003801407D1E0008E5
:101FB0008400002000300140000801400D488546A3
:101FC000AFF300800C480D490D4A002302E0D458BD
:101FD000C4500433C4188C42F9D30A4A0A4C002373
:101FE00001E013600432A242FBD300F011F8FFF7C6
:101FF00067FFFEE70028002000000020000000200E
:102000008020000800000020A4000020FEE700005F
:1020100070B500260C4D0D4C641BA410A64209D1CE
:1020200000F01AF800260A4D0A4C641BA410A642C0
:1020300005D170BD55F8043B98470136EEE755F8D9
:10204000043B98470136F2E7782000087820000822
:10205000782000087C200008F8B500BFF8BC08BC58
:102060009E467047F8B500BFF8BC08BC9E46704756
:0820700000000000010203045E
:042078005501000806
:04207C003101000826
:0400000508001FBD13
:00000001FF
