:100000000C942A000C947E140C94AB140C94D81409
:100010000C94DB0C0C94A80C0C94750C0C940F0C29
:100020000C94420C0C94DC0B0C94A90B0C94760BE6
:100030000C9447000C9447000C9447000C94470024
:100040000C944A160C9447000C9447000C944700FB
:100050000C94470011241FBECFE5D8E0DEBFCDBF12
:1000600011E0A0E6B0E0E0E9F3E702C005900D92F0
:10007000AA33B107D9F711E0AAE3B1E001C01D929C
:10008000A937B107E1F70E943F390C94C6390C94A7
:100090000000EF92FF920F931F937B018C0120E0F1
:1000A00030E040E05FE40E94490388238CF0C801FF
:1000B000B70120E030E040E05FE40E94C1010E940F
:1000C000A9039B01AC01205030404040504806C07D
:1000D000C801B7010E94A9039B01AC01B901CA0183
:1000E0001F910F91FF90EF900895A0E0B0E0EBE733
:1000F000F0E00C944A39DC012B01FA019C9192301A
:1001000008F439C1EB018881823008F433C194309E
:1001100069F4843009F02FC111969C91119789815F
:10012000981709F428C1A0E6B0E025C1843009F48D
:1001300021C18230A9F4923009F01DC19A01AD01AC
:1001400088E0EA010990AE01E90109929E0181501F
:10015000C1F7E201898111969C918923818308C1AD
:10016000923009F407C112962D903C901397EB0141
:100170008A819B811496AD90BD90CD90DC901797AD
:10018000EC80FD800E811F819101281B390BB90184
:1001900037FF04C066277727621B730B6032710537
:1001A0000CF061C0121613066CF537014801062EDB
:1001B00004C096948794779467940A94D2F721E0C8
:1001C00030E040E050E004C0220F331F441F551FB1
:1001D0006A95D2F721503040404050402E213F21B7
:1001E00040235123211531054105510521F021E01E
:1001F00030E040E050E079018A01E628F72808293C
:1002000019293CC0232BD1F1260E371E350146019A
:10021000062E04C096948794779467940A94D2F734
:1002200021E030E040E050E004C0220F331F441FC3
:10023000551F6A95D2F721503040404050402A2146
:100240003B214C215D21211531054105510521F04E
:1002500021E030E040E050E059016A01A628B728CB
:10026000C828D9280BC0821593052CF01C01AA249C
:10027000BB24650103C0EE24FF24870111969C91E5
:10028000D20111968C91981709F445C0992339F041
:10029000A80197012A193B094C095D0906C0A6016E
:1002A00095012E193F09400B510B57FD08C01182D3
:1002B0003382228224833583468357831DC081E0A5
:1002C00081833382228288279927DC01821B930B4A
:1002D000A40BB50B84839583A683B7830DC0220F2F
:1002E000331F441F551F24833583468357838281E0
:1002F000938101979383828324813581468157813D
:10030000DA01C9010197A109B1098F5F9F4FAF4F72
:10031000BF4328F30BC0918333822282EA0CFB1C7B
:100320000C1D1D1DE482F5820683178383E0808304
:10033000248135814681578157FF1AC0C901AA27F8
:1003400097FDA095BA2F81709070A070B0705695EF
:10035000479537952795822B932BA42BB52B848318
:100360009583A683B7838281938101969383828349
:10037000DF0101C0D201CD01CDB7DEB7E2E10C94BF
:100380006639A0E2B0E0E7ECF1E00C9456396983FD
:100390007A838B839C832D833E834F835887E9E048
:1003A000EE2EF12CEC0EFD1ECE010196B7010E943F
:1003B000D2048E010F5E1F4FCE010596B8010E9438
:1003C000D2048A8991E089278A8BC701B801AE01DE
:1003D000475E5F4F0E9475000E94FD03A096E6E015
:1003E0000C947239A0E2B0E0E8EFF1E00C945639D9
:1003F00069837A838B839C832D833E834F835887C5
:10040000F9E0EF2EF12CEC0EFD1ECE010196B701A6
:100410000E94D2048E010F5E1F4FCE010596B801D7
:100420000E94D204C701B801AE01475E5F4F0E942F
:1004300075000E94FD03A096E6E00C947239A0E2DC
:10044000B0E0E5E2F2E00C944A3969837A838B8369
:100450009C832D833E834F835887CE010196BE0136
:10046000675F7F4F0E94D204CE010596BE016F5E8A
:100470007F4F0E94D2049985923088F0898982301A
:10048000C8F0943019F4823051F404C0843029F457
:10049000923081F480E690E0C6C0923049F420E0CA
:1004A0009A858A89981321E02A87CE010996BBC0D4
:1004B000823049F420E09A858A89981321E02A8BBA
:1004C000CE014196B0C02D843E844F8458886D88FB
:1004D0007E888F88988CEE24FF248701AA24BB2471
:1004E000650140E050E060E070E0E0E0F0E0C10174
:1004F00081709070892BE9F0E60CF71C081D191D1E
:100500009A01AB012A0D3B1D4C1D5D1D80E090E062
:10051000A0E0B0E0E614F7040805190520F481E036
:1005200090E0A0E0B0E0BA01A901480F591F6A1F8E
:100530007B1FAA0CBB1CCC1CDD1C97FE08C081E0F5
:1005400090E0A0E0B0E0A82AB92ACA2ADB2A3196B6
:10055000E032F10549F0660C771C881C991C569412
:10056000479437942794C3CFFA85EA892B893C892D
:100570008B859C85280F391F2E5F3F4F17C0CA01FE
:1005800081709070892B61F016950795F794E79428
:1005900080E090E0A0E0B0E8E82AF92A0A2B1B2BC3
:1005A00076956795579547952F5F3F4F77FDE7CF36
:1005B0000CC0440F551F661F771F17FD4160EE0CDE
:1005C000FF1C001F111F21503040403090E05907A0
:1005D00090E0690790E4790760F32B8F3C8FDB0193
:1005E000CA018F779070A070B07080349105A1051A
:1005F000B10561F447FD0AC0E114F10401051105DC
:1006000029F0405C5F4F6F4F7F4F40781A8EFE1786
:1006100011F081E08A8F4D8F5E8F6F8F78A383E01A
:10062000898FCE0149960E94FD03A096E2E10C94C9
:100630006639A8E1B0E0EFE1F3E00C945639698344
:100640007A838B839C832D833E834F83588789E0F5
:10065000E82EF12CEC0EFD1ECE010196B7010E9492
:10066000D2048E010F5E1F4FCE010596B8010E9485
:10067000D2048985823040F08989823028F0C70110
:10068000B8010E944A0501C08FEF6896E6E00C941D
:100690007239A8E1B0E0EFE4F3E00C9456396983D5
:1006A0007A838B839C832D833E834F83588789E095
:1006B000E82EF12CEC0EFD1ECE010196B7010E9432
:1006C000D2048E010F5E1F4FCE010596B8010E9425
:1006D000D2048985823040F08989823028F0C701B0
:1006E000B8010E944A0501C08FEF6896E6E00C94BD
:1006F0007239A8E1B0E0EFE7F3E00C945639698372
:100700007A838B839C832D833E834F83588789E034
:10071000E82EF12CEC0EFD1ECE010196B7010E94D1
:10072000D2048E010F5E1F4FCE010596B8010E94C4
:10073000D2048985823040F08989823028F0C7014F
:10074000B8010E944A0501C081E06896E6E00C9479
:100750007239ACE0B0E0EFEAF3E00C945A39698307
:100760007A838B839C83CE010196BE016B5F7F4FA2
:100770000E94D2048D81823061F1823050F1843048
:1007800021F48E81882351F12EC02F81388537FDC9
:1007900020C06E812F3131051CF06623F9F023C093
:1007A0008EE190E0821B930B29853A854B855C8511
:1007B00004C056954795379527958A95D2F76623B5
:1007C000B1F050954095309521953F4F4F4F5F4F79
:1007D0000EC020E030E040E050E009C02FEF3FEFD6
:1007E0004FEF5FE704C020E030E040E050E8B9019F
:1007F000CA012C96E2E00C947639DF92EF92FF92D8
:100800000F931F93FC01E480F58006811781D1804E
:100810008081823048F480E090E0A0E1B0E0E82AF6
:10082000F92A0A2B1B2BA5C0843009F49FC0823003
:1008300021F4EE24FF24870105C0E114F104010531
:10084000110519F4E0E0F0E096C0628173819FEF3A
:10085000623879070CF05BC022E83FEF261B370BAC
:100860002A3131052CF020E030E040E050E02AC091
:10087000B801A701022E04C0769567955795479554
:100880000A94D2F781E090E0A0E0B0E004C0880FC5
:10089000991FAA1FBB1F2A95D2F70197A109B10979
:1008A0008E219F21A023B1230097A105B10521F03E
:1008B00081E090E0A0E0B0E09A01AB01282B392B59
:1008C0004A2B5B2BDA01C9018F779070A070B07052
:1008D00080349105A105B10539F427FF09C0205CDA
:1008E0003F4F4F4F5F4F04C0215C3F4F4F4F5F4F13
:1008F000E0E0F0E02030A0E03A07A0E04A07A0E402
:100900005A0710F0E1E0F0E079018A0127C0603871
:10091000710564F5FB01E158FF4FD801C7018F77DE
:100920009070A070B07080349105A105B10539F4C4
:10093000E7FE0DC080E490E0A0E0B0E004C08FE3EB
:1009400090E0A0E0B0E0E80EF91E0A1F1B1F17FFA1
:1009500005C016950795F794E794319687E01695AC
:100960000795F794E7948A95D1F705C0EE24FF2404
:100970008701EFEFF0E06E2F679566276795902F60
:100980009F77D794DD24D7948E2F8695492F462BB9
:10099000582F5D29B701CA011F910F91FF90EF9069
:1009A000DF900895FC01DB01408151812281622F9B
:1009B0006F7770E0221F2227221F9381892F880FD3
:1009C000822B282F30E0991F9927991F11969C930D
:1009D000119721153105A9F54115510561057105DD
:1009E00011F482E037C082E89FEF13969C938E93B8
:1009F00012979A01AB0167E0220F331F441F551F66
:100A00006A95D1F783E08C930DC0220F331F441FEA
:100A1000551F12968D919C911397019713969C9355
:100A20008E931297203080E0380780E0480780E4FA
:100A3000580758F314962D933D934D935C93179755
:100A400008952F3F310579F4411551056105710570
:100A500019F484E08C93089564FF03C081E08C93C3
:100A600012C01C9210C02F57304013963C932E9307
:100A7000129783E08C9387E0440F551F661F771F02
:100A80008A95D1F7706414964D935D936D937C9322
:100A9000179708951F93DC01FB019C91923008F495
:100AA00047C08081823008F443C0943051F41196DD
:100AB0001C91843099F58181682F70E0611B710968
:100AC0003FC0843021F0923031F48230B9F181811D
:100AD000882389F12DC011961C9111978230F1F075
:100AE00081811817D9F412962D913C911397828128
:100AF00093818217930794F028173907BCF0149656
:100B00008D919D910D90BC91A02D248135814681C0
:100B10005781281739074A075B0718F4112341F05A
:100B20000AC082179307A407B50740F4112319F0F0
:100B300061E070E005C06FEF7FEF02C060E070E041
:100B4000CB011F910895DF93CF9300D00F92CDB7C3
:100B5000DEB79B838A8381E089838A819B810097AA
:100B600009F491C0A0E4B0E0E0E4F0E08081282F37
:100B70002F73EA81FB818081882F90E09695982FD2
:100B8000882797958795822B8C93A0E4B0E0E0E4CA
:100B9000F0E08081282F2F7CEA81FB818181882FE2
:100BA00090E082959295907F9827807F9827822B5E
:100BB0008C93A0E4B0E0E0E4F0E08081282F277F70
:100BC000EA81FB818281882F90E0880F991F880F2E
:100BD000991F880F991F822B8C93A0E4B0E0E0E46A
:100BE000F0E08081282F287FEA81FB818381882F94
:100BF00090E0880F991F822B8C93EA81FB8184817E
:100C0000882309F5ABE2B0E0EBE2F0E080818D7F74
:100C10008C93A0E4B0E0E0E4F0E080818F778C93E7
:100C2000A9E2B0E0EA81FB8185818C93A0E4B0E089
:100C3000EA81FB818581882F90E0892F990F990B9C
:100C40008C93198222C0ABE2B0E0EBE2F0E080814D
:100C500082608C93A0E4B0E0E0E4F0E080818F77E4
:100C60008C93A9E2B0E0EA81FB81868197818C9325
:100C7000A0E4B0E0EA81FB8186819781892F9927E2
:100C80008C93198202C082E0898389810F900F9032
:100C90000F90CF91DF910895DF93CF930F92CDB74F
:100CA000DEB781E08983AAE2B0E0EAE2F0E0808189
:100CB00080618C93AAE2B0E0EAE2F0E08081886093
:100CC0008C93198289810F90CF91DF910895DF93E2
:100CD000CF9300D00F92CDB7DEB79B838A8381E09C
:100CE0008983EBE2F0E08081881F8827881F8130AC
:100CF000C1F7ECE2F0E08081EA81FB818083ABE226
:100D0000B0E0EBE2F0E080818F778C9319828981EB
:100D10000F900F900F90CF91DF910895DF93CF93B5
:100D200000D0CDB7DEB78A8381E08983EBE2F0E0C3
:100D30008081829586958770882F90E08170907071
:100D40000097A1F3ECE2F0E08A8180831982898127
:100D50000F900F90CF91DF910895DF93CF9300D044
:100D60000F92CDB7DEB79B838A8381E089838A8126
:100D70009B810097C1F0A1E2B0E0E1E2F0E0808168
:100D8000982F9C7FEA81FB818081892B8C93A2E242
:100D9000B0E0EA81FB8181818C93E0E2F0E080E2C7
:100DA0008083198202C082E0898389810F900F902D
:100DB0000F90CF91DF910895DF93CF930F92CDB72E
:100DC000DEB781E08983A6E5B0E0E6E5F0E080816A
:100DD00084608C93198289810F90CF91DF9108955F
:100DE000DF93CF930F92CDB7DEB781E08983A6E57D
:100DF000B0E0E6E5F0E080818B7F8C9319828981F9
:100E00000F90CF91DF910895DF93CF930F92CDB7DD
:100E1000DEB781E08983A6E5B0E0E6E5F0E0808119
:100E200080688C93A6E5B0E0E6E5F0E08081806222
:100E30008C93A6E5B0E0E6E5F0E0808184608C93D9
:100E4000E6E5F0E080818823DCF7198289810F9044
:100E5000CF91DF910895DF93CF930F92CDB7DEB797
:100E600081E08983A6E5B0E0E6E5F0E08081806876
:100E70008C93A6E5B0E0E6E5F0E0808180618C939C
:100E8000A6E5B0E0E6E5F0E0808184608C93E6E5DD
:100E9000F0E080818823DCF7198289810F90CF915F
:100EA000DF910895DF93CF9300D0CDB7DEB78A836B
:100EB00081E08983E3E2F0E08A818083A6E5B0E007
:100EC000E6E5F0E0808180688C93A6E5B0E0E6E599
:100ED000F0E0808180648C93A6E5B0E0E6E5F0E088
:100EE000808184608C93E6E5F0E080818823DCF7E4
:100EF000198289810F900F90CF91DF910895DF9330
:100F0000CF9300D00F92CDB7DEB79B838A8381E069
:100F10008983E6E5F0E080818823DCF7A6E5B0E090
:100F2000E6E5F0E0808180648C93A6E5B0E0E6E53C
:100F3000F0E0808184608C93E6E5F0E08081882396
:100F4000DCF7E3E2F0E08081EA81FB8180831982B3
:100F500089810F900F900F90CF91DF910895DF93CB
:100F6000CF9300D00F92CDB7DEB79B838A8381E009
:100F70008983E6E5F0E080818823DCF7A6E5B0E030
:100F8000E6E5F0E080818F7B8C93A6E5B0E0E6E5B6
:100F9000F0E0808184608C93E6E5F0E08081882336
:100FA000DCF7E3E2F0E08081EA81FB818083198253
:100FB00089810F900F900F90CF91DF910895DF936B
:100FC000CF9300D00F92CDB7DEB79B838A8381E0A9
:100FD0008983E1E2F0E08081EA81FB8180831982EC
:100FE00089810F900F900F90CF91DF910895DF933B
:100FF000CF9300D000D00F92CDB7DEB79B838A830A
:1010000081E089838A819B81009709F461C0EA812C
:10101000FB818081282F30E03D832C838C819D8152
:101020008130910501F12C813D8122303105B9F1EA
:101030008C819D81009709F048C0EA81FB818681FF
:101040009781009751F0EA81FB8186819781909387
:101050003B0180933A01198202C082E089831982A0
:1010600082E0898337C0EA81FB818681978100977E
:1010700051F0EA81FB818681978190933F018093B3
:101080003E01198202C082E08983198282E089834D
:10109000198282E08983198282E089831BC0EA81F8
:1010A000FB8186819781009751F0EA81FB818681DF
:1010B00097819093470180934601198202C082E094
:1010C0008983198282E0898305C083E0898302C015
:1010D00082E0898389810F900F900F900F900F907D
:1010E000CF91DF910895DF93CF9300D000D00F927E
:1010F000CDB7DEB79B838A8381E089838A819B8118
:10110000009709F42FC1EA81FB818081282F30E00C
:101110003D832C838C819D818130910509F45DC0D4
:101120002C813D812230310509F4BCC08C819D8128
:10113000009709F014C1A3E5B0E0E3E5F0E0808199
:10114000282F2F7BEA81FB818181882F90E000246A
:10115000969587950794969587950794982F802D57
:10116000822B8C93A3E5B0E0E3E5F0E08081282FAB
:10117000277FEA81FB8181818695882F90E0880F07
:10118000991F880F991F880F991F822B8C93A3E5B5
:10119000B0E0E3E5F0E08081282F2F7CEA81FB813D
:1011A0008281882F90E082959295907F9827807F0A
:1011B0009827822B8C93A9E5B0E0E9E5F0E08081E7
:1011C000982F9C7FEA81FB818581892B8C938A8172
:1011D0009B810E94F7078983C7C0AFE4B0E0EFE4CA
:1011E000F0E08081982F9C7FEA81FB818181892BAF
:1011F0008C93AEE4B0E0EEE4F0E08081282F277E0F
:10120000EA81FB81818186958695882F90E0880F01
:10121000991F880F991F880F991F822B8C93AFE419
:10122000B0E0EFE4F0E08081282F2F73EA81FB81AA
:101230008281882F90E00024969587950794969553
:1012400087950794982F802D822B8C93AFE4B0E084
:10125000EFE4F0E08081282F2F7CEA81FB818381FD
:10126000882F90E082959295907F9827807F98278D
:10127000822B8C93A9E5B0E0E9E5F0E08081282F8E
:10128000237CEA81FB818581882F90E0880F991F5C
:10129000880F991F822B8C938A819B810E94F7076C
:1012A000898362C0A5E4B0E0E5E4F0E08081282F06
:1012B0002F7BEA81FB818181882F90E00024969525
:1012C00087950794969587950794982F802D822B64
:1012D0008C93A5E4B0E0E5E4F0E08081282F277F3F
:1012E000EA81FB8181818695882F90E0880F991F84
:1012F000880F991F880F991F822B8C93A5E4B0E06B
:10130000E5E4F0E08081282F2F7CEA81FB81828157
:10131000882F90E082959295907F9827807F9827DC
:10132000822B8C93A9E5B0E0E9E5F0E08081282FDD
:101330002C7FEA81FB818581882F90E0002496959F
:1013400087950794969587950794982F802D822BE3
:101350008C938A819B810E94F707898305C083E073
:10136000898302C082E0898389810F900F900F905A
:101370000F900F90CF91DF910895DF93CF9300D01E
:1013800000D00F92CDB7DEB79B838A8381E089833B
:101390008A819B81009709F442C0EA81FB818081A8
:1013A000282F30E03D832C838C819D8181309105F5
:1013B000B9F02C813D812230310501F18C819D8174
:1013C000009751F5A3E5B0E0E3E5F0E08081982FC8
:1013D000987FEA81FB818481892B8C93198221C0BB
:1013E000AEE4B0E0EEE4F0E08081982F987FEA81EF
:1013F000FB818481892B8C93198213C0A5E4B0E012
:10140000E5E4F0E08081982F987FEA81FB81848178
:10141000892B8C93198205C083E0898302C082E006
:10142000898389810F900F900F900F900F90CF912B
:10143000DF910895DF93CF9300D000D00F92CDB706
:10144000DEB79B838A8381E089838A819B810097B1
:1014500099F1EA81FB818081282F30E03D832C8344
:101460008C819D818130910591F02C813D812230CC
:101470003105B1F08C819D810097D9F4A3E5B0E0EE
:10148000E3E5F0E08081887F8C93198217C0AEE499
:10149000B0E0EEE4F0E08081887F8C9319820EC08A
:1014A000A5E4B0E0E5E4F0E08081887F8C931982C8
:1014B00005C083E0898302C082E0898389810F901F
:1014C0000F900F900F900F90CF91DF910895DF93C1
:1014D000CF93CDB7DEB727970FB6F894DEBF0FBE18
:1014E000CDBF9B838A837D836C8381E089838A81DE
:1014F0009B810097C1F1EA81FB818081282F30E038
:101500003F832E838E819F8181309105A1F02E81B2
:101510003F8122303105C9F08E819F81009701F50E
:10152000E2E5F0E08081882F90E0EC81FD819183FD
:10153000808319821AC0ECE4F0E080819181EC8113
:10154000FD8191838083198210C0E4E4F0E0808102
:10155000882F90E0EC81FD8191838083198205C002
:1015600083E0898302C082E08983898127960FB650
:10157000F894DEBF0FBECDBFCF91DF910895DF930A
:10158000CF93CDB7DEB727970FB6F894DEBF0FBE67
:10159000CDBF9B838A837D836C8381E089838A812D
:1015A0009B81009761F1EA81FB818081282F30E0E7
:1015B0003F832E838E819F818130910579F02E812A
:1015C0003F812230310591F08E819F810097A1F4F7
:1015D000E2E5F0E08C818083198213C0ECE4F0E056
:1015E0008C819D819183808319820BC0E4E4F0E0BB
:1015F0008C818083198205C083E0898302C082E0E8
:101600008983898127960FB6F894DEBF0FBECDBFC0
:10161000CF91DF910895DF93CF93CDB7DEB72997B0
:101620000FB6F894DEBF0FBECDBF9B838A837D8348
:101630006C835F834E8381E089838A819B810097DD
:1016400009F448C0EA81FB818081282F30E0398786
:1016500028878885998581309105C1F0288539854D
:101660002230310529F188859985009781F5ECE5CF
:10167000F0E08081882F90E0EC81FD819183808370
:10168000EE81FF8111821082198226C0EAE4F0E027
:1016900080819181EC81FD8191838083E8E4F0E099
:1016A00080819181EE81FF8191838083198214C0B2
:1016B000E3E4F0E08081882F90E0EC81FD8191836C
:1016C0008083EE81FF8111821082198205C083E040
:1016D000898302C082E08983898129960FB6F894B4
:1016E000DEBF0FBECDBFCF91DF9108951F920F9245
:1016F0000FB60F9211242F933F934F935F936F93E5
:101700007F938F939F93AF93BF93EF93FF93DF9359
:10171000CF93CDB7DEB780913A0190913B0100970E
:1017200029F0E0913A01F0913B010995CF91DF91C9
:10173000FF91EF91BF91AF919F918F917F916F91A9
:101740005F914F913F912F910F900FBE0F901F907F
:1017500018951F920F920FB60F9211242F933F935B
:101760004F935F936F937F938F939F93AF93BF93A9
:10177000EF93FF93DF93CF93CDB7DEB780913C011A
:1017800090913D01009729F0E0913C01F0913D01DD
:101790000995CF91DF91FF91EF91BF91AF919F910B
:1017A0008F917F916F915F914F913F912F910F900A
:1017B0000FBE0F901F9018951F920F920FB60F92A9
:1017C00011242F933F934F935F936F937F938F9346
:1017D0009F93AF93BF93EF93FF93DF93CF93CDB7D7
:1017E000DEB780913E0190913F01009729F0E09192
:1017F0003E01F0913F010995CF91DF91FF91EF916B
:10180000BF91AF919F918F917F916F915F914F9118
:101810003F912F910F900FBE0F901F9018951F9220
:101820000F920FB60F9211242F933F934F935F9314
:101830006F937F938F939F93AF93BF93EF93FF9398
:10184000DF93CF93CDB7DEB78091420190914301F2
:10185000009729F0E0914201F09143010995CF9161
:10186000DF91FF91EF91BF91AF919F918F917F9108
:101870006F915F914F913F912F910F900FBE0F90FD
:101880001F9018951F920F920FB60F9211242F934D
:101890003F934F935F936F937F938F939F93AF93F8
:1018A000BF93EF93FF93DF93CF93CDB7DEB78091D4
:1018B000400190914101009729F0E0914001F091A1
:1018C00041010995CF91DF91FF91EF91BF91AF91C8
:1018D0009F918F917F916F915F914F913F912F9148
:1018E0000F900FBE0F901F9018951F920F920FB67A
:1018F0000F9211242F933F934F935F936F937F9396
:101900008F939F93AF93BF93EF93FF93DF93CF9307
:10191000CDB7DEB78091440190914501009729F041
:10192000E0914401F09145010995CF91DF91FF913C
:10193000EF91BF91AF919F918F917F916F915F9147
:101940004F913F912F910F900FBE0F901F901895C0
:101950001F920F920FB60F9211242F933F934F9324
:101960005F936F937F938F939F93AF93BF93EF9307
:10197000FF93DF93CF93CDB7DEB78091460190916F
:101980004701009729F0E0914601F0914701099540
:10199000CF91DF91FF91EF91BF91AF919F918F9187
:1019A0007F916F915F914F913F912F910F900FBE5B
:1019B0000F901F9018951F920F920FB60F9211243F
:1019C0002F933F934F935F936F937F938F939F9347
:1019D000AF93BF93EF93FF93DF93CF93CDB7DEB772
:1019E0008091480190914901009729F0E0914801C8
:1019F000F09149010995CF91DF91FF91EF91BF914E
:101A0000AF919F918F917F916F915F914F913F9196
:101A10002F910F900FBE0F901F901895DF93CF93CB
:101A2000CDB7DEB72C970FB6F894DEBF0FBECDBF93
:101A30009C878B8781E08A8381E089838B859C8565
:101A4000009709F4F2C0EB85FC8580818130A9F50F
:101A500081E08B8384E08C8381E08D831E82CE01C4
:101A600003960E94840E89838981882341F485E04E
:101A70008C83CE0103960E94840E898302C081E08C
:101A80008A838981882341F487E08C83CE01039681
:101A90000E94840E898302C081E08A838981882321
:101AA00049F486E08C831D82CE0103960E94840E49
:101AB00089833CC081E08A8339C0EB85FC858081C5
:101AC0008823A1F581E08F8384E0888719861A86B0
:101AD000CE0107960E94840E89838981882341F470
:101AE00085E08887CE0107960E94840E898302C014
:101AF00081E08A838981882341F487E08887CE0149
:101B000007960E94840E898302C081E08A838981BE
:101B1000882351F486E0888781E08987CE01079683
:101B20000E94840E898302C081E08A83ADE2B0E026
:101B3000EDE2F0E08081282F2F77EB85FC85818115
:101B4000882F90E09695982F882797958795822BD8
:101B50008C93ADE2B0E0EDE2F0E08081282F2F7DA4
:101B6000EB85FC858281882F90E0880F991F8295F4
:101B70009295907F9827807F9827822B8C93ADE257
:101B8000B0E0EDE2F0E08081282F2F7EEB85FC8530
:101B90008081882F90E082959295907F9827807F12
:101BA0009827822B8C93ADE2B0E0EDE2F0E08081EB
:101BB000282F277FEB85FC858381882F90E0880F75
:101BC000991F880F991F880F991F822B8C93ADE264
:101BD000B0E0EDE2F0E08081982F9C7FEB85FC8502
:101BE0008581892B8C93ADE2B0E0EDE2F0E080815D
:101BF000282F2B7FEB85FC858481882F90E0880F30
:101C0000991F880F991F822B8C93AEE2B0E0EEE211
:101C1000F0E08081982F9E7FEB85FC8585818695FD
:101C20008695892B8C931A8202C082E08A838A81EE
:101C30002C960FB6F894DEBF0FBECDBFCF91DF91CB
:101C40000895DF93CF930F92CDB7DEB781E08983FC
:101C5000ADE2B0E0EDE2F0E0808180648C93198227
:101C600089810F90CF91DF910895DF93CF930F92E9
:101C7000CDB7DEB781E08983ADE2B0E0EDE2F0E020
:101C800080818F7B8C93198289810F90CF91DF9116
:101C90000895DF93CF9300D00F92CDB7DEB79B832B
:101CA0008A8381E08983EEE2F0E08081881F8827C3
:101CB000881F8130C1F7EFE2F0E08081EA81FB818B
:101CC0008083198289810F900F900F90CF91DF91BF
:101CD0000895DF93CF9300D0CDB7DEB78A8381E03C
:101CE0008983EFE2F0E08A818083EEE2F0E0808198
:101CF000881F8827881F8130C1F7198289810F903A
:101D00000F90CF91DF910895DF93CF9300D00F9282
:101D1000CDB7DEB79B838A8381E089838A819B81EB
:101D20000097B1F0EA81FB8122818A819B81622F39
:101D30000E94B10E89838981882361F4EA81FB8145
:101D400023818A819B81622F0E94360F898302C082
:101D500082E0898389810F900F900F90CF91DF915E
:101D60000895DF93CF9300D000D000D0CDB7DEB779
:101D70009B838A836C8381E089838A819B8100971E
:101D800009F468C08C81282F30E03E832D838D813B
:101D90009E81009731F02D813E812130310571F116
:101DA0005BC0EA81FB818081882F90E0880F991FBA
:101DB000FC01E859FF4FA081B181EA81FB8180815C
:101DC000882F90E0880F991FFC01E859FF4F019080
:101DD000F081E02D8081482FEA81FB818181282FCD
:101DE00030E081E090E0022E02C0880F991F0A9433
:101DF000E2F7809584238C9319822EC0EA81FB81BF
:101E00008081882F90E0880F991FFC01E859FF4FCF
:101E1000A081B181EA81FB818081882F90E0880FC9
:101E2000991FFC01E859FF4F0190F081E02D80815E
:101E3000482FEA81FB818181282F30E081E090E00A
:101E4000022E02C0880F991F0A94E2F7842B8C930C
:101E5000198202C082E08983898126960FB6F894A0
:101E6000DEBF0FBECDBFCF91DF910895DF93CF933B
:101E700000D000D000D0CDB7DEB79B838A836C83BF
:101E800081E089838A819B81009709F468C08C81F5
:101E9000282F30E03E832D838D819E81009731F085
:101EA0002D813E812130310571F15BC0EA81FB81DA
:101EB0008081882F90E0880F991FFC01E059FF4F27
:101EC000A081B181EA81FB818081882F90E0880F19
:101ED000991FFC01E059FF4F0190F081E02D8081B6
:101EE000482FEA81FB818181282F30E081E090E05A
:101EF000022E02C0880F991F0A94E2F7809584236E
:101F00008C9319822EC0EA81FB818081882F90E01A
:101F1000880F991FFC01E059FF4FA081B181EA8130
:101F2000FB818081882F90E0880F991FFC01E05988
:101F3000FF4F0190F081E02D8081482FEA81FB81E5
:101F40008181282F30E081E090E0022E02C0880FCE
:101F5000991F0A94E2F7842B8C93198202C082E0C5
:101F60008983898126960FB6F894DEBF0FBECDBF58
:101F7000CF91DF910895DF93CF9300D000D00F92DF
:101F8000CDB7DEB79B838A837D836C8381E08983B1
:101F90008A819B81009711F1EA81FB818081882FE2
:101FA00090E0880F991FFC01E858FF4F0190F081E5
:101FB000E02D8081282F30E0EA81FB818181882F0C
:101FC00090E0A90102C0559547958A95E2F7CA01AC
:101FD0008170EC81FD818083198202C082E0898357
:101FE00089810F900F900F900F900F90CF91DF91FC
:101FF0000895DF93CF9300D00F92CDB7DEB79B83C8
:102000008A8381E089838A819B81009761F1EA81DB
:10201000FB818081882F90E0880F991FFC01E05997
:10202000FF4FA081B181EA81FB818081882F90E000
:10203000880F991FFC01E059FF4F0190F081E02DBE
:102040008081482FEA81FB818181282F30E081E067
:1020500090E0022E02C0880F991F0A94E2F78427AD
:102060008C93198202C082E0898389810F900F903E
:102070000F90CF91DF910895DF93CF93CDB7DEB767
:1020800028970FB6F894DEBF0FBECDBF8A836B834F
:102090004C8381E089838B81282F30E038872F8320
:1020A0008F819885009731F02F8138852130310557
:1020B00079F01CC08A81882F90E0880F991FFC015D
:1020C000E859FF4F0190F081E02D108219820EC077
:1020D0008A81882F90E0880F991FFC01E859FF4FF3
:1020E0000190F081E02D8FEF808319828C81282F61
:1020F00030E03E832D838D819E81009731F02D81CC
:102100003E812130310579F01CC08A81882F90E012
:10211000880F991FFC01E059FF4F0190F081E02DDD
:10212000108219820EC08A81882F90E0880F991F33
:10213000FC01E059FF4F0190F081E02D8FEF80838B
:102140001982898128960FB6F894DEBF0FBECDBFE5
:10215000CF91DF910895DF93CF9300D000D00F92FD
:10216000CDB7DEB78A836B8381E089838B81282F8B
:1021700030E03D832C838C819D81009731F02C8150
:102180003D812130310579F01CC08A81882F90E093
:10219000880F991FFC01E859FF4F0190F081E02D55
:1021A000108219820EC08A81882F90E0880F991FB3
:1021B000FC01E859FF4F0190F081E02D8FEF808303
:1021C000198289810F900F900F900F900F90CF91EF
:1021D000DF910895DF93CF9300D000D00F92CDB759
:1021E000DEB78A836B8381E089838B81282F30E07F
:1021F0003D832C838C819D81009731F02C813D8122
:102200002130310579F01CC08A81882F90E0880F39
:10221000991FFC01E059FF4F0190F081E02D1082E1
:1022200019820EC08A81882F90E0880F991FFC01C7
:10223000E059FF4F0190F081E02D8FEF80831982EC
:1022400089810F900F900F900F900F90CF91DF9199
:102250000895DF93CF9300D000D0CDB7DEB78A8347
:102260007C836B8381E089838A81882F90E0880F4B
:10227000991FFC01E858FF4F0190F081E02D80810B
:10228000EB81FC818083198289810F900F900F90E0
:102290000F90CF91DF910895DF93CF9300D0CDB70A
:1022A000DEB78A8381E089838A81882F90E0880F56
:1022B000991FFC01E859FF4FA081B1818A81882FC5
:1022C00090E0880F991FFC01E859FF4F0190F081C1
:1022D000E02D20818A81882F90E0880F991FFC01D2
:1022E000E859FF4F0190F081E02D808182278C9387
:1022F000198289810F900F90CF91DF910895DF931C
:10230000CF9300D00F92CDB7DEB78A836B8381E085
:1023100089838A81882F90E0880F991FFC01E059FA
:10232000FF4FA081B1818A81882F90E0880F991F8B
:10233000FC01E059FF4F0190F081E02D80818F700A
:102340008C938A81882F90E0880F991FFC01E059B7
:10235000FF4FA081B1818A81882F90E0880F991F5B
:10236000FC01E059FF4F0190F081E02D8081282F82
:102370008B81882F90E082959295907F9827807F1F
:102380009827822B8C93198289810F900F900F9040
:10239000CF91DF910895DF93CF93CDB7DEB7279725
:1023A0000FB6F894DEBF0FBECDBF8A834B835C832C
:1023B0006D837E8381E089838A81882F90E0880FF6
:1023C000991FFC01E059FF4F0190F081E02D8081C1
:1023D0008A81882F90E0880F991FFC01E059FF4FF8
:1023E0000190F081E02D10828A81882F90E0880F83
:1023F000991FFC01E059FF4FA081B1818A81882F8C
:1024000090E0880F991FFC01E059FF4F0190F08187
:10241000E02D90818B81892B8C931982898127965D
:102420000FB6F894DEBF0FBECDBFCF91DF910895F8
:10243000DF93CF93CDB7DEB7AFE5B0E0EFE5F0E0E7
:10244000808180688C93CF91DF910895DF93CF9343
:10245000CDB7DEB7AFE5B0E0EFE5F0E080818F7794
:102460008C93CF91DF910895DF93CF9300D00F929B
:10247000CDB7DEB79B838A8381E089838A819B8184
:10248000009741F08A819B8190934B0180934A0190
:10249000198202C082E0898389810F900F900F908A
:1024A000CF91DF910895DF93CF9300D00F92CDB7F6
:1024B000DEB79B838A8381E089838A819B81009731
:1024C00041F08A819B8190934D0180934C01198248
:1024D00002C082E0898389810F900F900F90CF9185
:1024E000DF910895DF93CF9300D00F92CDB7DEB781
:1024F0009B838A8381E089838A819B81009741F055
:102500008A819B8190934F0180934E01198202C072
:1025100082E0898389810F900F900F90CF91DF9196
:102520000895DF93CF9300D000D00F92CDB7DEB7E0
:102530009B838A8381E089838A819B81009709F448
:102540002BC1EA81FB818281282F30E03D832C83DF
:102550008C819D818130910509F47EC02C813D8163
:102560002230310509F4EBC08C819D81009709F080
:1025700015C1EA81FB8183818823B9F4ABE5B0E022
:10258000EBE5F0E080818F7B8C93A5E5B0E0E5E59D
:10259000F0E080818D7F8C93A5E5B0E0E5E5F0E08B
:1025A00080818E7F8C931982F9C0EA81FB818381BF
:1025B0008130B9F4ABE5B0E0EBE5F0E080818F7BF2
:1025C0008C93A5E5B0E0E5E5F0E080818D7F8C930C
:1025D000A5E5B0E0E5E5F0E0808181608C931982AB
:1025E000DDC0EA81FB8183818230B9F4ABE5B0E0E4
:1025F000EBE5F0E080818F7B8C93A5E5B0E0E5E52D
:10260000F0E0808182608C93A5E5B0E0E5E5F0E044
:1026100080818E7F8C931982C1C0EA81FB81838186
:102620008330B9F4ABE5B0E0EBE5F0E080818F7B7F
:102630008C93A5E5B0E0E5E5F0E0808182608C93C5
:10264000A5E5B0E0E5E5F0E0808181608C9319823A
:10265000A5C083E08983A2C0EA81FB8183818823AE
:10266000B9F4ABE5B0E0EBE5F0E080818F778C93D7
:10267000A5E5B0E0E5E5F0E08081877F8C93A5E5F6
:10268000B0E0E5E5F0E080818B7F8C93198286C015
:10269000EA81FB8183818130B9F4ABE5B0E0EBE501
:1026A000F0E080818F778C93A5E5B0E0E5E5F0E080
:1026B0008081877F8C93A5E5B0E0E5E5F0E080813F
:1026C00084608C9319826AC0EA81FB8183818230A5
:1026D000B9F4ABE5B0E0EBE5F0E080818F778C9367
:1026E000A5E5B0E0E5E5F0E0808188608C93A5E5A4
:1026F000B0E0E5E5F0E080818B7F8C9319824EC0DD
:10270000EA81FB8183818330B9F4ABE5B0E0EBE58E
:10271000F0E080818F778C93A5E5B0E0E5E5F0E00F
:10272000808188608C93A5E5B0E0E5E5F0E08081EC
:1027300084608C93198232C083E089832FC0EA8140
:10274000FB818381823081F4ABE5B0E0EBE5F0E022
:1027500080818F7D8C93A4E5B0E0E4E5F0E080819A
:102760008F7B8C9319821AC0EA81FB81838183302D
:1027700081F4ABE5B0E0EBE5F0E0808180628C9322
:10278000A4E5B0E0E4E5F0E0808180648C931982F8
:1027900005C083E0898302C082E0898389810F902C
:1027A0000F900F900F900F90CF91DF910895DF93CE
:1027B000CF9300D000D00F92CDB7DEB79B838A8332
:1027C00081E089838A819B81009709F442C0EA8174
:1027D000FB818281282F30E03D832C838C819D8179
:1027E00081309105C1F02C813D812230310511F1FC
:1027F0008C819D81009779F5ABE5B0E0EBE5F0E0E9
:10280000808180648C93EA81FB81808191810E9428
:102810003412898320C0ABE5B0E0EBE5F0E08081C5
:1028200080688C93EA81FB81808191810E945312A0
:10283000898311C0ABE5B0E0EBE5F0E08081806218
:102840008C93EA81FB81808191810E94721289833D
:1028500002C082E0898389810F900F900F900F90C2
:102860000F90CF91DF910895DF93CF9300D000D0E8
:102870000F92CDB7DEB79B838A8381E089838A81FB
:102880009B81009781F1EA81FB818281282F30E0D2
:102890003D832C838C819D818130910591F02C8129
:1028A0003D8122303105B1F08C819D810097E9F4A2
:1028B000ABE5B0E0EBE5F0E080818F7B8C93198293
:1028C00014C0ABE5B0E0EBE5F0E080818F778C934E
:1028D00019820BC0ABE5B0E0EBE5F0E080818F7DC5
:1028E0008C93198202C082E0898389810F900F90B6
:1028F0000F900F900F90CF91DF9108951F920F923C
:102900000FB60F9211242F933F934F935F936F93C2
:102910007F938F939F93AF93BF93EF93FF93DF9337
:10292000CF93CDB7DEB7E0914A01F0914B01099505
:10293000CF91DF91FF91EF91BF91AF919F918F91D7
:102940007F916F915F914F913F912F910F900FBEAB
:102950000F901F9018951F920F920FB60F9211248F
:102960002F933F934F935F936F937F938F939F9397
:10297000AF93BF93EF93FF93DF93CF93CDB7DEB7C2
:10298000E0914C01F0914D010995CF91DF91FF91BC
:10299000EF91BF91AF919F918F917F916F915F91D7
:1029A0004F913F912F910F900FBE0F901F90189550
:1029B0001F920F920FB60F9211242F933F934F93B4
:1029C0005F936F937F938F939F93AF93BF93EF9397
:1029D000FF93DF93CF93CDB7DEB7E0914E01F09137
:1029E0004F010995CF91DF91FF91EF91BF91AF9189
:1029F0009F918F917F916F915F914F913F912F9117
:102A00000F900FBE0F901F901895DF93CF9300D0BB
:102A100000D00F92CDB7DEB79D838C8381E08B838E
:102A20008C819D81009709F467C01A821982A6E201
:102A3000B0E0E6E2F0E080818F778C938A81282FE6
:102A40002F73EC81FD818281882F90E00024969580
:102A500087950794969587950794982F802D822BBC
:102A60008A838A81282F2F7DEC81FD818381882FA5
:102A700090E0880F991F82959295907F9827807F8C
:102A80009827822B8A838A81982F907EEC81FD8102
:102A90008481892B8A838981982F987FEC81FD819D
:102AA0008581892B89838981282F277FEC81FD816E
:102AB0008681882F90E0880F991F880F991F880FB3
:102AC000991F822B8983E7E2F0E08A818083E6E226
:102AD000F0E089818083EC81FD81808191819093F8
:102AE000510180935001A6E2B0E0E6E2F0E080817F
:102AF00080688C931B8202C082E08B838B810F9055
:102B00000F900F900F900F90CF91DF910895DF936A
:102B1000CF9300D00F92CDB7DEB79B838A8381E03D
:102B200089838A819B81009781F0A6E2B0E0E6E28A
:102B3000F0E08081877F8C93A6E2B0E0E6E2F0E0EF
:102B400080818F778C93198202C082E0898389818A
:102B50000F900F900F90CF91DF910895DF93CF9357
:102B600000D00F92CDB7DEB79B838A8381E0898343
:102B70008A819B81009749F0A6E2B0E0E6E2F0E0AE
:102B8000808180648C93198202C082E0898389816C
:102B90000F900F900F90CF91DF910895DF93CF9317
:102BA000CDB7DEB727970FB6F894DEBF0FBECDBF07
:102BB0009B838A837D836C8381E089838A819B8167
:102BC000009709F45BC08C819D81009709F456C081
:102BD000E6E2F0E0808182958F70882F90E081702E
:102BE00090700097A9F3A6E2B0E0E6E2F0E0808101
:102BF00080618C93EA81FB818381282F30E03F83C1
:102C00002E838E819F81009731F02E813F8121306C
:102C10003105A9F030C0E4E2F0E08081282F30E0F7
:102C2000E5E2F0E08081882F90E0982F8827820FDE
:102C3000931FEC81FD8191838083198221C0E4E29E
:102C4000F0E08081282F30E0E5E2F0E08081882FFD
:102C500090E0982F8827820F931F082E892F000C51
:102C6000881F990B000C881F991FEC81FD819183AF
:102C70008083198205C081E0898302C082E0898354
:102C8000898127960FB6F894DEBF0FBECDBFCF91D6
:102C9000DF9108951F920F920FB60F9211242F9378
:102CA0003F934F935F936F937F938F939F93AF93D4
:102CB000BF93EF93FF93DF93CF93CDB7DEB78091B0
:102CC000500190915101009729F0E0915001F0914D
:102CD00051010995CF91DF91FF91EF91BF91AF9194
:102CE0009F918F917F916F915F914F913F912F9124
:102CF0000F900FBE0F901F901895DF93CF93CDB715
:102D0000DEB7C454D0400FB6F894DEBF0FBECDBFBF
:102D1000FE01ED5BFF4F9183808381E08A8381E038
:102D20008983FE01ED5BFF4F80819181009709F45B
:102D3000D2C1FE01ED5BFF4F0190F081E02D80815B
:102D4000813009F0DFC0FE01ED5BFF4F0190F081A3
:102D5000E02D9785FE01ED5BFF4F0190F081E02DA6
:102D600080899B838C8381E08D8381E08E83FE014B
:102D7000ED5BFF4F0190F081E02D9181FE01ED5B55
:102D8000FF4F0190F081E02D82819F83888781E051
:102D9000898781E08A87FE01ED5BFF4F0190F0811A
:102DA000E02D9381FE01ED5BFF4F0190F081E02D5E
:102DB00084819B878C8781E08D8781E08E87FE01EF
:102DC000ED5BFF4F0190F081E02D9581FE01ED5B01
:102DD000FF4F0190F081E02D86819F87888B81E0F5
:102DE000898B81E08A8BFE01ED5BFF4F0190F081C2
:102DF000E02D9781FE01ED5BFF4F0190F081E02D0A
:102E000080859B8B8C8B81E08D8B81E08E8BFE018E
:102E1000ED5BFF4F0190F081E02D9185FE01ED5BB0
:102E2000FF4F0190F081E02D82859F8B888F81E09C
:102E3000898F81E08A8FFE01ED5BFF4F0190F08169
:102E4000E02D9385FE01ED5BFF4F0190F081E02DB9
:102E500084859B8F8C8F81E08D8F81E08E8FFE012A
:102E6000ED5BFF4F0190F081E02D9585FE01ED5B5C
:102E7000FF4F0190F081E02D86859F8F88A381E030
:102E800089A381E08AA3CE0103960E94840E8983E0
:102E90008981882329F4CE0107960E94840E8983B4
:102EA0008981882321F4CE010B960E94840E8981AA
:102EB000882321F4CE010F960E94840E89818823F5
:102EC00021F4CE0143960E94840E8981882321F447
:102ED000CE0147960E94840E8981882321F4CE0179
:102EE0004B960E94840E8981882321F4CE014F964F
:102EF0000E94840E8981882311F41A82EEC081E039
:102F00008A83EBC0FE01ED5BFF4F0190F081E02D65
:102F10008081882309F0E1C0FE01ED5BFF4F019045
:102F2000F081E02D9785FE01ED5BFF4F0190F08170
:102F3000E02D80899BA38CA381E08DA31EA2FE01BE
:102F4000ED5BFF4F0190F081E02D9181FE01ED5B83
:102F5000FF4F0190F081E02D82819FA388A781E03F
:102F600089A71AA6FE01ED5BFF4F0190F081E02DCD
:102F70009381FE01ED5BFF4F0190F081E02D848194
:102F80009BA78CA781E08DA71EA6FE01ED5BFF4FDE
:102F90000190F081E02D9581FE01ED5BFF4F0190E6
:102FA000F081E02D86819FA788AB81E089AB1AAACA
:102FB000FE01ED5BFF4F0190F081E02D9781FE0156
:102FC000ED5BFF4F0190F081E02D80859BAB8CABDA
:102FD00081E08DAB1EAAFE01ED5BFF4F0190F081F9
:102FE000E02D9185FE01ED5BFF4F0190F081E02D1A
:102FF00082859FAB88AF81E089AF1AAEFE01ED5BA1
:10300000FF4F0190F081E02D9385FE01ED5BFF4FB6
:103010000190F081E02D84859BAF8CAF81E08DAF76
:103020001EAEFE01ED5BFF4F0190F081E02D858526
:10303000FE01ED5BFF4F0190F081E02D9685FE01D2
:10304000FF968083FE01FF969183FE01FF9681E04B
:103050008283FE01FF961382CE0183960E94840E26
:1030600089838981882329F4CE0187960E94840E62
:1030700089838981882321F4CE018B960E94840E56
:103080008981882321F4CE018F960E94840E898144
:10309000882321F4CE01C3960E94840E898188235F
:1030A00021F4CE01C7960E94840E8981882321F4E1
:1030B000CE01CB960E94840E8981882321F4CE0113
:1030C000CF960E94840E8981882311F41A8205C04C
:1030D00081E08A8302C082E08A838A81CC5BDF4FF1
:1030E0000FB6F894DEBF0FBECDBFCF91DF9108952C
:1030F000DF93CF93CDB7DEB7ED970FB6F894DEBF71
:103100000FBECDBF9CAF8BAF6DAF81E08A8381E0F6
:1031100089838BAD9CAD009709F415C2EBADFCAD76
:103120008081813009F008C1EBADFCAD9181EBAD40
:10313000FCAD82819B838C8381E08D8381E08E83D3
:10314000EBADFCAD9381EBADFCAD84819F838887B3
:1031500081E0898781E08A87EBADFCAD9581EBAD9D
:10316000FCAD86819B878C8781E08D8781E08E878F
:10317000EBADFCAD9781EBADFCAD80859F87888B77
:1031800081E0898B81E08A8BEBADFCAD9185EBAD65
:10319000FCAD82859B8B8C8B81E08D8B81E08E8B4F
:1031A000EBADFCAD9385EBADFCAD84859F8B888F3B
:1031B00081E0898F81E08A8FEBADFCAD9585EBAD29
:1031C000FCAD86859B8F8C8F81E08D8F81E08E8F0B
:1031D0008DAD282F30E0C901880F991F880F991FE6
:1031E000880F991F821B930BFC01EA53FF4F20812C
:1031F000CE010396622F0E94360F8983898188232E
:10320000B1F48DAD282F30E0C901880F991F880FC8
:10321000991F880F991F821B930BFC01E953FF4FE5
:103220002081CE010796622F0E94360F8983898103
:103230008823B1F48DAD282F30E0C901880F991F84
:10324000880F991F880F991F821B930BFC01E8536D
:10325000FF4F2081CE010B96622F0E94360F89838B
:1032600089818823B1F48DAD282F30E0C901880F02
:10327000991F880F991F880F991F821B930BFC01C0
:10328000E753FF4F2081CE010F96622F0E94360F29
:10329000898389818823B1F48DAD282F30E0C9015D
:1032A000880F991F880F991F880F991F821B930BF6
:1032B000FC01E653FF4F2081CE014396622F0E940E
:1032C000360F898389818823B1F48DAD282F30E0B2
:1032D000C901880F991F880F991F880F991F821B9A
:1032E000930BFC01E553FF4F2081CE014796622FDF
:1032F0000E94360F898389818823B1F48DAD282FF0
:1033000030E0C901880F991F880F991F880F991FF6
:10331000821B930BFC01E453FF4F2081CE014B969F
:10332000622F0E94360F89838981882311F41A82C3
:103330000CC181E08A8309C1EBADFCAD808188239B
:1033400009F003C1EBADFCAD9181EBADFCAD828129
:103350009F8F88A381E089A31AA2EBADFCAD938176
:10336000EBADFCAD84819BA38CA381E08DA31EA259
:10337000EBADFCAD9581EBADFCAD86819FA388A73D
:1033800081E089A71AA6EBADFCAD9781EBADFCAD52
:1033900080859BA78CA781E08DA71EA6EBADFCAD19
:1033A0009185EBADFCAD82859FA788AB81E089ABB1
:1033B0001AAAEBADFCAD9385EBADFCAD84859BAB60
:1033C0008CAB81E08DAB1EAAEBADFCAD9585EBAD72
:1033D000FCAD86859FAB88AF81E089AF1AAE8DAD1D
:1033E000282F30E0C901880F991F880F991F880F77
:1033F000991F821B930BFC01E058FF4F2081CE01E7
:103400004F96622F0E94360F898389818823B1F4F9
:103410008DAD282F30E0C901880F991F880F991FA3
:10342000880F991F821B930BFC01EF57FF4F2081E0
:10343000CE018396622F0E94360F8983898188236B
:10344000B1F48DAD282F30E0C901880F991F880F86
:10345000991F880F991F821B930BFC01EE57FF4F9A
:103460002081CE018796622F0E94360F8983898141
:103470008823B1F48DAD282F30E0C901880F991F42
:10348000880F991F880F991F821B930BFC01ED5722
:10349000FF4F2081CE018B96622F0E94360F8983C9
:1034A00089818823B1F48DAD282F30E0C901880FC0
:1034B000991F880F991F880F991F821B930BFC017E
:1034C000EC57FF4F2081CE018F96622F0E94360F5E
:1034D000898389818823B1F48DAD282F30E0C9011B
:1034E000880F991F880F991F880F991F821B930BB4
:1034F000FC01EB57FF4F2081CE01C396622F0E9443
:10350000360F898389818823B1F48DAD282F30E06F
:10351000C901880F991F880F991F880F991F821B57
:10352000930BFC01EA57FF4F2081CE01C796622F13
:103530000E94360F89838981882311F41A8205C07D
:1035400081E08A8302C082E08A838A81ED960FB689
:10355000F894DEBF0FBECDBFCF91DF910895DF930A
:10356000CF93CDB7DEB72C970FB6F894DEBF0FBE62
:10357000CDBF9C878B8781E08A8381E089838B859F
:103580009C850097D9F1EB85FC8580818130C9F459
:10359000EB85FC859189EB85FC8582899B838C83F7
:1035A00081E08D8381E08E83CE0103960E94840E9C
:1035B00089838981882311F41A8222C081E08A8359
:1035C0001FC0EB85FC8580818823D1F4EB85FC85C9
:1035D0009189EB85FC8582899F83888781E0898733
:1035E0001A86CE0107960E94840E898389818823DA
:1035F00011F41A8205C081E08A8302C082E08A83C6
:103600008A812C960FB6F894DEBF0FBECDBFCF9146
:10361000DF910895DF93CF93CDB7DEB72C970FB628
:10362000F894DEBF0FBECDBF9C878B8781E08A8375
:1036300081E089838B859C850097D9F1EB85FC859A
:1036400080818130C1F4EB85FC859189EB85FC8517
:1036500082899B838C8381E08D831E82CE010396B9
:103660000E94840E89838981882311F41A8223C0E1
:1036700081E08A8320C0EB85FC8580818823D9F492
:10368000EB85FC859189EB85FC8582899F83888702
:1036900081E0898781E08A87CE0107960E94840EA7
:1036A00089838981882311F41A8205C081E08A8385
:1036B00002C082E08A838A812C960FB6F894DEBF1E
:1036C0000FBECDBFCF91DF910895DF93CF93CDB7DC
:1036D000DEB7A0970FB6F894DEBF0FBECDBF98A39C
:1036E0008F8F81E08A8381E089838F8D98A10097F5
:1036F00009F499C0EF8DF8A19281EF8DF8A1838133
:103700001B821C821D821E829B838C8381E08D83A1
:10371000EF8DF8A19481EF8DF8A185811F82188625
:1037200019861A869F83888781E08987EF8DF8A1A3
:103730009681EF8DF8A187811B861C861D861E86CB
:103740009B878C8781E08D87EF8DF8A19085EF8D29
:10375000F8A181851F86188A198A1A8A9F87888B03
:1037600081E0898BEF8DF8A19285EF8DF8A183859B
:103770001B8A1C8A1D8A1E8A9B8B8C8B81E08D8BF9
:10378000EF8DF8A19485EF8DF8A185851F8A188E9D
:10379000198E1A8E9F8B888F81E0898FEF8DF8A10B
:1037A0009685EF8DF8A187851B8E1C8E1D8E1E8E33
:1037B0009B8F8C8F81E08D8FCE0103960E94840EAB
:1037C00089838981882321F4CE0107960E94840E83
:1037D0008981882321F4CE010B960E94840E898171
:1037E000882321F4CE010F960E94840E89818823BC
:1037F00021F4CE0143960E94840E8981882321F40E
:10380000CE0147960E94840E8981882321F4CE013F
:103810004B960E94840E8981882311F41A8205C078
:1038200081E08A8302C082E08A838A81A0960FB6F3
:10383000F894DEBF0FBECDBFCF91DF910895DF9327
:10384000CF93CDB7DEB7A5970FB6F894DEBF0FBE06
:10385000CDBF9CA38BA381E08A8381E089838BA168
:103860009CA1009709F4F7C0EBA1FCA186898823ED
:1038700009F076C0EBA1FCA180818130C9F4EBA1F5
:10388000FCA19289EBA1FCA183899B838C8381E0BD
:103890008D8381E08E83CE0103960E94840E8983FE
:1038A0008981882311F41A821FC081E08A831CC099
:1038B000EBA1FCA180818823B9F4EBA1FCA1928942
:1038C000EBA1FCA183899F83888781E089871A8681
:1038D000CE0107960E94840E89838981882311F482
:1038E0001A8202C081E08A83EBA1FCA18181813030
:1038F000C1F4EBA1FCA19489EBA1FCA185899B8774
:103900008C8781E08D871E86CE010B960E94840EE7
:1039100089838981882311F41A829FC081E08A8378
:103920009CC0EBA1FCA18181882309F096C0EBA18A
:10393000FCA19489EBA1FCA185899F87888B81E0FC
:10394000898B81E08A8BCE010F960E94840E898339
:103950008981882311F41A8280C081E08A837DC026
:10396000EBA1FCA18689813009F077C0EBA1FCA115
:1039700081818130C9F4EBA1FCA19489EBA1FCA168
:1039800085899B8B8C8B81E08D8B81E08E8BCE012A
:1039900043960E94840E89838981882311F41A82B8
:1039A0001FC081E08A831CC0EBA1FCA18181882318
:1039B000B9F4EBA1FCA19489EBA1FCA185899F8BB3
:1039C000888F81E0898F1A8ECE0147960E94840EDF
:1039D00089838981882311F41A8202C081E08A8355
:1039E000EBA1FCA180818130C1F4EBA1FCA1928903
:1039F000EBA1FCA183899B8F8C8F81E08D8F1E8E24
:103A0000CE014B960E94840E89838981882311F40C
:103A10001A8223C081E08A8320C0EBA1FCA18081AF
:103A20008823D9F4EBA1FCA19289EBA1FCA18389A5
:103A30009F8F88A381E089A381E08AA3CE014F965E
:103A40000E94840E89838981882311F41A8205C01B
:103A500081E08A8302C082E08A83A5960FB6F8943B
:103A6000DEBF0FBECDBFCF91DF910895DF93CF931F
:103A700000D000D0CDB7DEB79B838A836C8381E012
:103A800089838A819B81009731F0EA81FB818C8157
:103A9000868B198202C082E0898389810F900F9002
:103AA0000F900F90CF91DF910895CF92DF92EF9218
:103AB000FF920F931F93DF93CF93CDB7DEB76C9731
:103AC0000FB6F894DEBF0FBECDBF998F888F6A8F77
:103AD00081E08C83888D998D009709F473C0E88DFF
:103AE000F98D8689882369F4E88DF98D80818B832F
:103AF000E88DF98D82898983E88DF98D83898A83A0
:103B000011C0E88DF98D8689813061F4E88DF98DD9
:103B100081818B83E88DF98D84898983E88DF98D86
:103B200085898A83E88DF98D9281E88DF98D2381CD
:103B3000E88DF98D3481E88DF98D4581E88DF98D19
:103B40005681E88DF98D6781E88DF98D7085E88D56
:103B5000F98DA185E88DF98DB285E88DF98D1385F4
:103B6000E88DF98D0485E88DF98DF584E88DF98D62
:103B7000E684E88DF98DD78483E1FE013596FC8FCC
:103B8000EB8FEB8DFC8DC82E1192CA94E9F78B81D7
:103B90008D839E832F83388749875A876B877C87DD
:103BA000AD87BE871F87088BF98AEA8ADB8A8981FD
:103BB0008C8B8A818D8BCE0105966A8D0E94781838
:103BC0008C8302C081E08C838C816C960FB6F89454
:103BD000DEBF0FBECDBFCF91DF911F910F91FF9040
:103BE000EF90DF90CF900895DF93CF93CDB7DEB7FE
:103BF00028970FB6F894DEBF0FBECDBF98878F838E
:103C00001A8281E089838F8198850097D1F0EF81B6
:103C1000F8858181EF81F8859081EF81F885228197
:103C20008B839C831D822E83CE0103960E94840E7B
:103C300089838981882311F41A8205C081E08A83EF
:103C400002C082E08A838A8128960FB6F894DEBF8C
:103C50000FBECDBFCF91DF910895DF93CF93CDB746
:103C6000DEB72C970FB6F894DEBF0FBECDBF9A8794
:103C700089877C876B871B8281E08A8389859A8507
:103C8000009709F45CC08B859C85009709F457C0A8
:103C9000E985FA859181E985FA8580811C821D82FA
:103CA0001E821F829C838D83CE0104969E01285F15
:103CB0003F4FB9010E94BB0F8A838885898309C061
:103CC000CE0104969E01285F3F4FB9010E94BB0FB1
:103CD0008A8398858981891799F38A81882361F578
:103CE000E985FA858281813089F48885882329F4E1
:103CF000EB85FC8510821B8224C08885813009F504
:103D0000EB85FC8581E080831B821BC0E985FA85F9
:103D100082818823B1F48885813029F4EB85FC8584
:103D200010821B820EC08885882359F4EB85FC85A0
:103D300081E080831B8205C081E08B8302C082E02A
:103D40008B838B812C960FB6F894DEBF0FBECDBF50
:103D5000CF91DF910895DF93CF93CDB7DEB728974A
:103D60000FB6F894DEBF0FBECDBF98878F8381E07A
:103D70008A8381E089838F8198850097D9F0EF81CC
:103D8000F8858181EF81F8859281EF81F885208126
:103D90008B839C8381E08D832E83CE0103960E94CA
:103DA000840E89838981882311F41A8205C081E0F9
:103DB0008A8302C082E08A838A8128960FB6F894AB
:103DC000DEBF0FBECDBFCF91DF910895DF93CF93BC
:103DD000CDB7DEB728970FB6F894DEBF0FBECDBFC4
:103DE00098878F8381E08A8381E089838F8198859A
:103DF0000097E1F0EF81F8858181EF81F88592816C
:103E0000EF81F88520818B839C8381E08D832E83D5
:103E1000CE01039661E00E94360F89838981882351
:103E200011F41A8205C081E08A8302C082E08A838D
:103E30008A8128960FB6F894DEBF0FBECDBFCF9112
:103E4000DF910895DF93CF93CDB7DEB728970FB6F4
:103E5000F894DEBF0FBECDBF98878F8381E08A8341
:103E600081E089838F8198850097E1F0EF81F88563
:103E70008181EF81F8859281EF81F88520818B83A4
:103E80009C8381E08D832E83CE01039660E00E94A7
:103E9000360F89838981882311F41A8205C081E055
:103EA0008A8302C082E08A838A8128960FB6F894BA
:103EB000DEBF0FBECDBFCF91DF910895DF93CF93CB
:103EC000CDB7DEB728970FB6F894DEBF0FBECDBFD3
:103ED00098878F8381E08A8381E089838F819885A9
:103EE0000097D9F0EF81F8858181EF81F885928183
:103EF000EF81F88520818B839C8381E08D832E83E5
:103F0000CE0103960E94F90F89838981882311F4D9
:103F10001A8205C081E08A8302C082E08A838A8196
:103F200028960FB6F894DEBF0FBECDBFCF91DF91BC
:103F300008950F931F93DF93CF93CDB7DEB7CE597C
:103F4000D0400FB6F894DEBF0FBECDBFFE01E356E2
:103F5000FF4F91838083FE01E058FF4F81E0808313
:103F6000FE01E158FF4F81E08083FE01E356FF4FE1
:103F700080819181009709F418C7FE01E356FF4F35
:103F80000190F081E02D8181FE01E356FF4F019009
:103F9000F081E02D9381FE01EF57FF4F8083FE01FA
:103FA000EF57FF4F9183FE01EF57FF4F81E0828370
:103FB000FE01EF57FF4F1382FE01E356FF4F0190C2
:103FC000F081E02D8181FE01E356FF4F0190F081E9
:103FD000E02D9481FE01EB57FF4F8083FE01EB57EC
:103FE000FF4F9183FE01EB57FF4F81E08283FE017B
:103FF000EB57FF4F1382FE01E356FF4F0190F08114
:10400000E02D8181FE01E356FF4F0190F081E02D0C
:104010009581FE01E757FF4F8083FE01E757FF4F71
:104020009183FE01E757FF4F81E08283FE01E7574E
:10403000FF4F1382CE018F579F4F0E94840EFE01C7
:10404000E158FF4F8083FE01E158FF4F80818823B4
:1040500051F4CE018B579F4F0E94840EFE01E15810
:10406000FF4F808305C0FE01E058FF4F81E0808351
:10407000FE01E158FF4F8081882351F4CE0187571C
:104080009F4F0E94840EFE01E158FF4F808305C0C0
:10409000FE01E058FF4F81E08083FE01E356FF4FB1
:1040A0000190F081E02D8081882309F042C4FE0157
:1040B000E356FF4F0190F081E02D8281FE01E3562F
:1040C000FF4F0190F081E02D9285FE01E357FF4FF5
:1040D0008083FE01E357FF4F9183FE01E357FF4FBB
:1040E00081E08283FE01E357FF4F1382FE01E35616
:1040F000FF4F0190F081E02D8281FE01E356FF4FDA
:104100000190F081E02D9385FE01EF56FF4F8083F3
:10411000FE01EF56FF4F9183FE01EF56FF4F81E006
:104120008283FE01EF56FF4F1382FE01E356FF4FDD
:104130000190F081E02D8281FE01E356FF4F019056
:10414000F081E02D9485FE01EB56FF4F8083FE0148
:10415000EB56FF4F9183FE01EB56FF4F81E08283C8
:10416000FE01EB56FF4F1382FE01E356FF4F019015
:10417000F081E02D8281FE01E356FF4F0190F08136
:10418000E02D9585FE01E756FF4F8083FE01E7563F
:10419000FF4F9183FE01E756FF4F81E08283FE01CE
:1041A000E756FF4F1382FE01E158FF4F80818823BD
:1041B00051F4CE0183579F4F0E94840EFE01E158B7
:1041C000FF4F808305C0FE01E058FF4F81E08083F0
:1041D000FE01E158FF4F8081882351F4CE018F56B4
:1041E0009F4F0E94840EFE01E158FF4F808305C05F
:1041F000FE01E058FF4F81E08083FE01E158FF4F50
:104200008081882351F4CE018B569F4F0E94840EEB
:10421000FE01E158FF4F808305C0FE01E058FF4FCB
:1042200081E08083FE01E158FF4F8081882351F4B3
:10423000CE0187569F4F0E94840EFE01E158FF4F2A
:10424000808305C0FE01E058FF4F81E08083FE01BE
:10425000E558FF4F80E090E0A0EFB1E480839183C8
:10426000A283B3838E0109581F4FFE01E558FF4F0B
:10427000608171818281938120E030E04AEF54E4D3
:104280000E941F02DC01CB01F80180839183A2838D
:10429000B383FE01E958FF4F608171818281938170
:1042A00020E030E040E85FE30E947903882344F493
:1042B000FE01EB58FF4F81E090E09183808364C062
:1042C000FE01E958FF4F608171818281938120E076
:1042D0003FEF4FE757E40E94190318160CF043C054
:1042E000FE01E558FF4F608171818281938120E05A
:1042F00030E040E251E40E941F02DC01CB018E015C
:104300000B581F4FBC01CD010E944900DC01CB01BD
:10431000F801918380831FC0FE01ED58FF4F88ECA8
:1043200090E091838083FE01ED58FF4F8081918161
:104330000197F1F7FE01ED58FF4F91838083DE0175
:10434000AB58BF4FFE01EB58FF4F80819181019721
:1043500011969C938E93FE01EB58FF4F80819181C3
:104360000097D1F627C08E010B581F4FFE01E95868
:10437000FF4F60817181828193810E944900DC013D
:10438000CB01F80191838083DE01AF58BF4FFE015E
:10439000EB58FF4F808191818D939C93FE01EF58E4
:1043A000FF4F808191810197F1F7FE01EF58FF4F98
:1043B00091838083FE01E356FF4F8081918168E203
:1043C0000E94EA26FE01E359FF4F80E090E0A8E456
:1043D000B2E480839183A283B3838E0107591F4F78
:1043E000FE01E359FF4F608171818281938120E05A
:1043F00030E04AEF54E40E941F02DC01CB01F801D7
:1044000080839183A283B383FE01E759FF4F6081CC
:1044100071818281938120E030E040E85FE30E9477
:104420007903882344F4FE01E959FF4F81E090E0CD
:104430009183808364C0FE01E759FF4F60817181E1
:104440008281938120E03FEF4FE757E40E941903F8
:1044500018160CF043C0FE01E359FF4F60817181D3
:104460008281938120E030E040E251E40E941F020B
:10447000DC01CB018E0109591F4FBC01CD010E9407
:104480004900DC01CB01F801918380831FC0FE014C
:10449000EB59FF4F88EC90E091838083FE01EB594C
:1044A000FF4F808191810197F1F7FE01EB59FF4F9A
:1044B00091838083DE01A959BF4FFE01E959FF4F67
:1044C00080819181019711969C938E93FE01E95909
:1044D000FF4F808191810097D1F627C08E01095945
:1044E0001F4FFE01E759FF4F6081718182819381E7
:1044F0000E944900DC01CB01F80191838083DE0139
:10450000AD59BF4FFE01E959FF4F808191818D93D5
:104510009C93FE01ED59FF4F808191810197F1F746
:10452000FE01ED59FF4F91838083FE01E356FF4F5B
:10453000808191816FE00E94EA26FE01E15AFF4FDF
:1045400080E090E0A8E4B2E480839183A283B38307
:104550008E01055A1F4FFE01E15AFF4F60817181A4
:104560008281938120E030E04AEF54E40E941F02F0
:10457000DC01CB01F80180839183A283B383FE0128
:10458000E55AFF4F608171818281938120E030E0A4
:1045900040E85FE30E947903882344F4FE01E75A70
:1045A000FF4F81E090E09183808364C0FE01E55A73
:1045B000FF4F608171818281938120E03FEF4FE75F
:1045C00057E40E94190318160CF043C0FE01E15A8B
:1045D000FF4F608171818281938120E030E040E271
:1045E00051E40E941F02DC01CB018E01075A1F4FCC
:1045F000BC01CD010E944900DC01CB01F80191838F
:1046000080831FC0FE01E95AFF4F88EC90E0918340
:104610008083FE01E95AFF4F808191810197F1F774
:10462000FE01E95AFF4F91838083DE01A75ABF4FF5
:10463000FE01E75AFF4F80819181019711969C936B
:104640008E93FE01E75AFF4F808191810097D1F64A
:1046500027C08E01075A1F4FFE01E55AFF4F6081A8
:104660007181828193810E944900DC01CB01F801B4
:1046700091838083DE01AB5ABF4FFE01E75AFF4FA3
:10468000808191818D939C93FE01EB5AFF4F808135
:1046900091810197F1F7FE01EB5AFF4F91838083DF
:1046A000FE01E356FF4F8081918161E00E94EA267E
:1046B000FE01EF5AFF4F80E090E0A8E4B2E480836F
:1046C0009183A283B3838E01035B1F4FFE01EF5AD8
:1046D000FF4F608171818281938120E030E04AEF59
:1046E00054E40E941F02DC01CB01F8018083918316
:1046F000A283B383FE01E35BFF4F608171818281FE
:10470000938120E030E040E85FE30E947903882352
:1047100044F4FE01E55BFF4F81E090E091838083EC
:1047200064C0FE01E35BFF4F6081718182819381F0
:1047300020E03FEF4FE757E40E94190318160CF0F2
:1047400043C0FE01EF5AFF4F6081718182819381E6
:1047500020E030E040E251E40E941F02DC01CB0186
:104760008E01055B1F4FBC01CD010E944900DC0199
:10477000CB01F801918380831FC0FE01E75BFF4FEF
:1047800088EC90E091838083FE01E75BFF4F80819E
:1047900091810197F1F7FE01E75BFF4F91838083E1
:1047A000DE01A55BBF4FFE01E55BFF4F808191817C
:1047B000019711969C938E93FE01E55BFF4F8081DC
:1047C00091810097D1F627C08E01055B1F4FFE0136
:1047D000E35BFF4F60817181828193810E94490078
:1047E000DC01CB01F80191838083DE01A95BBF4F1F
:1047F000FE01E55BFF4F808191818D939C93FE01CB
:10480000E95BFF4F808191810197F1F7FE01E95B40
:10481000FF4F91838083FE01E356FF4F808191819A
:1048200066E00E94EA26FE01ED5BFF4F80E090E02B
:10483000A8E4B2E480839183A283B3838E01015CF8
:104840001F4FFE01ED5BFF4F60817181828193817B
:1048500020E030E04AEF54E40E941F02DC01CB016B
:10486000F80180839183A283B383FE01FF96608168
:1048700071818281938120E030E040E85FE30E9413
:10488000790388232CF481E090E09EAF8DAF46C081
:10489000FE01FF96608171818281938120E03FEF6C
:1048A0004FE757E40E941903181664F5FE01ED5B0B
:1048B000FF4F608171818281938120E030E040E28E
:1048C00051E40E941F02DC01CB01BC01CD010E941A
:1048D0004900DC01CB019EAF8DAF0FC088EC90E0AA
:1048E0009CAF8BAF8BAD9CAD0197F1F79CAF8BAFBD
:1048F0008DAD9EAD01979EAF8DAF8DAD9EAD0097F6
:1049000069F758C2FE01FF966081718182819381AF
:104910000E944900DC01CB019EAF8DAF8DAD9EADF5
:104920009AAF89AF89AD9AAD0197F1F79AAF89AF88
:1049300041C2FE01E356FF4F0190F081E02D8081DE
:10494000813009F02CC2FE01E158FF4F808188239D
:1049500081F4FE01E356FF4F0190F081E02D82814A
:1049600061E040E00E943C10FE01E158FF4F80836F
:1049700005C0FE01E058FF4F81E0808380E090E0B9
:10498000A0E8BFE38DAB9EABAFABB8AF6DA97EA97E
:104990008FA998AD20E030E04AEF54E40E941F0256
:1049A000DC01CB0189AB9AABABABBCAB69A97AA9F3
:1049B0008BA99CA920E030E040E85FE30E947903E6
:1049C00088232CF481E090E098AB8FA73FC069A9C1
:1049D0007AA98BA99CA920E03FEF4FE757E40E94FA
:1049E000190318164CF56DA97EA98FA998AD20E082
:1049F00030E040E251E40E941F02DC01CB01BC0127
:104A0000CD010E944900DC01CB0198AB8FA70FC0FC
:104A100088EC90E09EA78DA78DA59EA50197F1F744
:104A20009EA78DA78FA598A9019798AB8FA78FA553
:104A300098A9009769F714C069A97AA98BA99CA9BC
:104A40000E944900DC01CB0198AB8FA78FA598A9E4
:104A50009CA78BA78BA59CA50197F1F79CA78BA77B
:104A6000FE01E158FF4F8081882369F4FE01E3567F
:104A7000FF4F8081918168E30E94EA26FE01E058A1
:104A8000FF4F808305C0FE01E058FF4F81E0808327
:104A900080E090E0A0E8BFE38FA398A7A9A7BAA7FA
:104AA0006FA178A589A59AA520E030E04AEF54E4EB
:104AB0000E941F02DC01CB018BA39CA3ADA3BEA36C
:104AC0006BA17CA18DA19EA120E030E040E85FE3D6
:104AD0000E94790388232CF481E090E09AA389A3B3
:104AE0003FC06BA17CA18DA19EA120E03FEF4FE7CD
:104AF00057E40E94190318164CF56FA178A589A5F3
:104B00009AA520E030E040E251E40E941F02DC015F
:104B1000CB01BC01CD010E944900DC01CB019AA36D
:104B200089A30FC088EC90E098A38F8F8F8D98A1F8
:104B30000197F1F798A38F8F89A19AA101979AA362
:104B400089A389A19AA1009769F714C06BA17CA1E0
:104B50008DA19EA10E944900DC01CB019AA389A3EB
:104B600089A19AA19E8F8D8F8D8D9E8D0197F1F7D2
:104B70009E8F8D8FFE01E058FF4F8081882369F45E
:104B8000FE01E356FF4F808191816EE00E94EA268C
:104B9000FE01E058FF4F808305C0FE01E058FF4F43
:104BA00081E0808380E090E0A0E8BFE3898F9A8F66
:104BB000AB8FBC8F698D7A8D8B8D9C8D20E030E022
:104BC0004AEF54E40E941F02DC01CB018D8B9E8BC7
:104BD000AF8BB88F6D897E898F89988D20E030E00A
:104BE00040E85FE30E94790388232CF481E090E0A1
:104BF0009C8B8B8B3FC06D897E898F89988D20E03F
:104C00003FEF4FE757E40E94190318164CF5698DE2
:104C10007A8D8B8D9C8D20E030E040E251E40E9443
:104C20001F02DC01CB01BC01CD010E944900DC0167
:104C3000CB019C8B8B8B0FC088EC90E09A8B898B7F
:104C400089899A890197F1F79A8B898B8B899C893D
:104C500001979C8B8B8B8B899C89009769F714C07B
:104C60006D897E898F89988D0E944900DC01CB0176
:104C70009C8B8B8B8B899C89988B8F878F85988950
:104C80000197F1F7988B8F87FE01E058FF4F8081E5
:104C9000882369F4FE01E356FF4F8081918161E032
:104CA0000E94EA26FE01E058FF4F808305C0FE0106
:104CB000E058FF4F81E0808380E090E0A0E8BFE310
:104CC0008B879C87AD87BE876B857C858D859E8510
:104CD00020E030E04AEF54E40E941F02DC01CB01E7
:104CE0008F839887A987BA876F81788589859A8508
:104CF00020E030E040E85FE30E94790388232CF451
:104D000081E090E09E838D833FC06F8178858985A7
:104D10009A8520E03FEF4FE757E40E9419031816E9
:104D20004CF56B857C858D859E8520E030E040E2EA
:104D300051E40E941F02DC01CB01BC01CD010E94A5
:104D40004900DC01CB019E838D830FC088EC90E08D
:104D50009C838B838B819C810197F1F79C838B8350
:104D60008D819E8101979E838D838D819E81009789
:104D700069F720C06F81788589859A850E944900EE
:104D8000DC01CB019E838D838D819E819A838983F3
:104D900089819A810197F1F79A8389830BC0FE017B
:104DA000E058FF4F83E0808305C0FE01E058FF4FCD
:104DB00082E08083FE01E058FF4F8081C256DF4FC2
:104DC0000FB6F894DEBF0FBECDBFCF91DF911F911C
:104DD0000F9108950F931F93DF93CF93CDB7DEB755
:104DE000CD59D0400FB6F894DEBF0FBECDBFFE0147
:104DF000E556FF4F91838083FE01E356FF4F6083AA
:104E0000FE01E257FF4F81E08083FE01E357FF4F31
:104E100081E08083FE01E556FF4F808191810097FC
:104E200009F42FC7FE01E556FF4F0190F081E02DF8
:104E30008181FE01E556FF4F0190F081E02D9381C5
:104E4000FE01E157FF4F8083FE01E157FF4F918341
:104E5000FE01E157FF4F81E08283FE01E157FF4FE2
:104E60001382FE01E556FF4F0190F081E02D818114
:104E7000FE01E556FF4F0190F081E02D9481FE0187
:104E8000ED56FF4F8083FE01ED56FF4F9183FE01EB
:104E9000ED56FF4F81E08283FE01ED56FF4F1382F6
:104EA000FE01E556FF4F0190F081E02D8181FE016A
:104EB000E556FF4F0190F081E02D9581FE01E95606
:104EC000FF4F8083FE01E956FF4F9183FE01E956B3
:104ED000FF4F81E08283FE01E956FF4F1382CE012E
:104EE00081579F4F60E00E94360FFE01E357FF4F4E
:104EF0008083FE01E357FF4F8081882359F4CE0160
:104F00008D569F4F60E00E94360FFE01E357FF4F22
:104F1000808305C0FE01E257FF4F81E08083FE01E0
:104F2000E757FF4F80E090E0A0EFB1E480839183EA
:104F3000A283B3838E010B571F4FFE01E757FF4F2C
:104F4000608171818281938120E030E04AEF54E4F6
:104F50000E941F02DC01CB01F80180839183A283B0
:104F6000B383FE01EB57FF4F608171818281938192
:104F700020E030E040E85FE30E947903882344F4B6
:104F8000FE01ED57FF4F81E090E09183808364C084
:104F9000FE01EB57FF4F608171818281938120E098
:104FA0003FEF4FE757E40E94190318160CF043C077
:104FB000FE01E757FF4F608171818281938120E07C
:104FC00030E040E251E40E941F02DC01CB018E017F
:104FD0000D571F4FBC01CD010E944900DC01CB01E0
:104FE000F801918380831FC0FE01EF57FF4F88ECCB
:104FF00090E091838083FE01EF57FF4F8081918184
:105000000197F1F7FE01EF57FF4F91838083DE0197
:10501000AD57BF4FFE01ED57FF4F80819181019742
:1050200011969C938E93FE01ED57FF4F80819181E5
:105030000097D1F628C08E010D571F4FFE01EB5788
:10504000FF4F60817181828193810E944900DC0160
:10505000CB01F80191838083DE01A158BF4FFE018F
:10506000ED57FF4F8081918111969C938E93FE01A5
:10507000E158FF4F808191810197F1F7FE01E158DE
:10508000FF4F91838083FE01E556FF4F0190F08131
:10509000E02D8081882309F03DC4FE01E357FF4FD6
:1050A0008081882359F4CE0189569F4F61E00E9488
:1050B000360FFE01E357FF4F808305C0FE01E25724
:1050C000FF4F81E08083FE01E558FF4F80E090E0D4
:1050D000A8E4B2E480839183A283B3838E0109584C
:1050E0001F4FFE01E558FF4F6081718182819381DE
:1050F00020E030E04AEF54E40E941F02DC01CB01C3
:10510000F80180839183A283B383FE01E958FF4FA6
:10511000608171818281938120E030E040E85FE32B
:105120000E947903882344F4FE01EB58FF4F81E08D
:1051300090E09183808364C0FE01E958FF4F608155
:1051400071818281938120E03FEF4FE757E40E9415
:10515000190318160CF043C0FE01E558FF4F60819B
:1051600071818281938120E030E040E251E40E942D
:105170001F02DC01CB018E010B581F4FBC01CD017A
:105180000E944900DC01CB01F801918380831FC09C
:10519000FE01ED58FF4F88EC90E091838083FE0183
:1051A000ED58FF4F808191810197F1F7FE01ED5895
:1051B000FF4F91838083DE01AB58BF4FFE01EB5858
:1051C000FF4F80819181019711969C938E93FE01F0
:1051D000EB58FF4F808191810097D1F627C08E0157
:1051E0000B581F4FFE01E958FF4F6081718182818A
:1051F00093810E944900DC01CB01F80191838083F7
:10520000DE01AF58BF4FFE01EB58FF4F8081918107
:105210008D939C93FE01EF58FF4F80819181019700
:10522000F1F7FE01EF58FF4F91838083FE01E556B1
:10523000FF4F0190F081E02D2281FE01E356FF4FE8
:105240008081982F92959F70822F692F0E947F11E5
:10525000FE01E359FF4F80E090E0A8E4B2E48083D0
:105260009183A283B3838E0107591F4FFE01E35937
:10527000FF4F608171818281938120E030E04AEFAD
:1052800054E40E941F02DC01CB01F801808391836A
:10529000A283B383FE01E759FF4F60817181828150
:1052A000938120E030E040E85FE30E9479038823A7
:1052B00044F4FE01E959FF4F81E090E0918380833F
:1052C00064C0FE01E759FF4F608171818281938143
:1052D00020E03FEF4FE757E40E94190318160CF047
:1052E00043C0FE01E359FF4F608171818281938148
:1052F00020E030E040E251E40E941F02DC01CB01DB
:105300008E0109591F4FBC01CD010E944900DC01EB
:10531000CB01F801918380831FC0FE01EB59FF4F41
:1053200088EC90E091838083FE01EB59FF4F8081F0
:1053300091810197F1F7FE01EB59FF4F9183808333
:10534000DE01A959BF4FFE01E959FF4F80819181CC
:10535000019711969C938E93FE01E959FF4F80812E
:1053600091810097D1F628C08E0109591F4FFE0187
:10537000E759FF4F60817181828193810E944900CA
:10538000DC01CB01F80191838083DE01AD59BF4F71
:10539000FE01E959FF4F8081918111969C938E9374
:1053A000FE01ED59FF4F808191810197F1F7FE01D8
:1053B000ED59FF4F91838083FE01E357FF4F8081BA
:1053C000882359F4CE0189569F4F60E00E94360F22
:1053D000FE01E357FF4F808305C0FE01E257FF4FF8
:1053E00081E08083FE01E15AFF4F80E090E0A8E475
:1053F000B2E480839183A283B3838E01055A1F4F49
:10540000FE01E15AFF4F608171818281938120E02A
:1054100030E04AEF54E40E941F02DC01CB01F801A6
:1054200080839183A283B383FE01E55AFF4F60819D
:1054300071818281938120E030E040E85FE30E9447
:105440007903882344F4FE01E75AFF4F81E090E09E
:105450009183808364C0FE01E55AFF4F60817181B2
:105460008281938120E03FEF4FE757E40E941903C8
:1054700018160CF043C0FE01E15AFF4F60817181A4
:105480008281938120E030E040E251E40E941F02DB
:10549000DC01CB018E01075A1F4FBC01CD010E94D8
:1054A0004900DC01CB01F801918380831FC0FE011C
:1054B000E95AFF4F88EC90E091838083FE01E95A1E
:1054C000FF4F808191810197F1F7FE01E95AFF4F6B
:1054D00091838083DE01A75ABF4FFE01E75AFF4F39
:1054E00080819181019711969C938E93FE01E75ADA
:1054F000FF4F808191810097D1F628C08E01075A15
:105500001F4FFE01E55AFF4F6081718182819381B7
:105510000E944900DC01CB01F80191838083DE0108
:10552000AB5ABF4FFE01E75AFF4F80819181119620
:105530009C938E93FE01EB5AFF4F808191810197DE
:10554000F1F7FE01EB5AFF4F91838083FE01E35791
:10555000FF4F8081882359F4CE0189569F4F61E027
:105560000E94360FFE01E357FF4F808305C0FE0106
:10557000E257FF4F81E08083FE01EF5AFF4F80E04A
:1055800090E0A8E4B2E480839183A283B3838E0188
:10559000035B1F4FFE01EF5AFF4F608171818281D3
:1055A000938120E030E04AEF54E40E941F02DC01C6
:1055B000CB01F80180839183A283B383FE01E35B77
:1055C000FF4F608171818281938120E030E040E86B
:1055D0005FE30E947903882344F4FE01E55BFF4FFB
:1055E00081E090E09183808364C0FE01E35BFF4F24
:1055F000608171818281938120E03FEF4FE757E422
:105600000E94190318160CF043C0FE01EF5AFF4F19
:10561000608171818281938120E030E040E251E439
:105620000E941F02DC01CB018E01055B1F4FBC01F4
:10563000CD010E944900DC01CB01F80191838083F8
:105640001FC0FE01E75BFF4F88EC90E091838083F1
:10565000FE01E75BFF4F808191810197F1F7FE0129
:10566000E75BFF4F91838083DE01A55BBF4FFE01A7
:10567000E55BFF4F80819181019711969C938E93FA
:10568000FE01E55BFF4F808191810097D1F627C035
:105690008E01055B1F4FFE01E35BFF4F608171814F
:1056A000828193810E944900DC01CB01F801918342
:1056B0008083DE01A95BBF4FFE01E55BFF4F808168
:1056C00091818D939C93FE01E95BFF4F80819181D5
:1056D0000197F1F7FE01E95BFF4F91838083FE01A3
:1056E000E556FF4F0190F081E02D8281FE01E356E7
:1056F000FF4F60810E947F11FE01ED5BFF4F80E054
:1057000090E0A8E4B2E480839183A283B3838E0106
:10571000015C1F4FFE01ED5BFF4F60817181828153
:10572000938120E030E04AEF54E40E941F02DC0144
:10573000CB01F80180839183A283B383FE01FF969E
:10574000608171818281938120E030E040E85FE3F5
:105750000E94790388232CF481E090E09EAF8DAF06
:1057600046C0FE01FF96608171818281938120E0B5
:105770003FEF4FE757E40E941903181664F5FE0146
:10578000ED5BFF4F608171818281938120E030E089
:1057900040E251E40E941F02DC01CB01BC01CD01BB
:1057A0000E944900DC01CB019EAF8DAF0FC088EC99
:1057B00090E09CAF8BAF8BAD9CAD0197F1F79CAFA8
:1057C0008BAF8DAD9EAD01979EAF8DAF8DAD9EAD74
:1057D000009769F716C0FE01FF9660817181828192
:1057E00093810E944900DC01CB019EAF8DAF8DAD4E
:1057F0009EAD9AAF89AF89AD9AAD0197F1F79AAF97
:1058000089AFFE01E357FF4F8081882359F4CE0111
:1058100089569F4F60E00E94360FFE01E357FF4F0D
:10582000808305C0FE01E257FF4F81E0808380E066
:1058300090E0A8E4B2E48DAB9EABAFABB8AF6DA97E
:105840007EA98FA998AD20E030E04AEF54E40E9491
:105850001F02DC01CB0189AB9AABABABBCAB69A936
:105860007AA98BA99CA920E030E040E85FE30E9480
:10587000790388232CF481E090E098AB8FA73FC098
:1058800069A97AA98BA99CA920E03FEF4FE757E4CB
:105890000E94190318164CF56DA97EA98FA998AD21
:1058A00020E030E040E251E40E941F02DC01CB0125
:1058B000BC01CD010E944900DC01CB0198AB8FA750
:1058C0000FC088EC90E09EA78DA78DA59EA501979F
:1058D000F1F79EA78DA78FA598A9019798AB8FA7E1
:1058E0008FA598A9009769F7BBC169A97AA98BA967
:1058F0009CA90E944900DC01CB0198AB8FA78FA522
:1059000098A99CA78BA78BA59CA50197F1F79CA7AD
:105910008BA7A6C1FE01E556FF4F0190F081E02D57
:105920008081813009F097C1FE01E357FF4F8081EC
:10593000882359F4CE0189569F4F61E00E94360FAB
:10594000FE01E357FF4F808305C0FE01E257FF4F82
:1059500081E0808380E090E0A0E8BFE38FA398A778
:10596000A9A7BAA76FA178A589A59AA520E030E0DC
:105970004AEF54E40E941F02DC01CB018BA39CA3DD
:10598000ADA3BEA36BA17CA18DA19EA120E030E0C0
:1059900040E85FE30E94790388232CF481E090E0E3
:1059A0009AA389A33FC06BA17CA18DA19EA120E0F9
:1059B0003FEF4FE757E40E94190318164CF56FA10B
:1059C00078A589A59AA520E030E040E251E40E9444
:1059D0001F02DC01CB01BC01CD010E944900DC01AA
:1059E000CB019AA389A30FC088EC90E098A38F8F76
:1059F0008F8D98A10197F1F798A38F8F89A19AA114
:105A000001979AA389A389A19AA1009769F714C065
:105A10006BA17CA18DA19EA10E944900DC01CB015C
:105A20009AA389A389A19AA19E8F8D8F8D8D9E8D1A
:105A30000197F1F79E8F8D8FFE01E556FF4F019084
:105A4000F081E02D9281FE01E356FF4F8081282FE7
:105A500030E040E050E0892FBA01A9010E94CB114B
:105A600080E090E0A0E8BFE3898F9A8FAB8FBC8F76
:105A7000698D7A8D8B8D9C8D20E030E04AEF54E467
:105A80000E941F02DC01CB018D8B9E8BAF8BB88FE8
:105A90006D897E898F89988D20E030E040E85FE352
:105AA0000E94790388232CF481E090E09C8B8B8BFF
:105AB0003FC06D897E898F89988D20E03FEF4FE749
:105AC00057E40E94190318164CF5698D7A8D8B8D59
:105AD0009C8D20E030E040E251E40E941F02DC0196
